:02000002D0002C
:1040000000400D00388C0D00000006000D00050179
:08401000040134080000000067
:0440180078840D009B
:10401C0009480A49884208B505D0094A824202D0AB
:10402C00121A04F0F3F80748074A0021121A04F098
:10403C0015F9014808BD00BFA8E30320948B0D00BF
:10404C0024E4032024E40320F0E7032070B5074E9A
:10405C00074C02F003FFA41BA4080025A54200D1C5
:10406C0070BD56F8043B98470135F7E76C8B0D0093
:10407C00908B0D0000F0B0B808B500F08FF9BDE8DA
:10408C00084002F0ADBE01F0E3B901F0E1B901F076
:10409C00E7B901F0E5B9000008B5034A00210C208E
:1040AC0001F022F9FEE700BFDD4F0D000078B0FAF9
:1040BC0080F0400970470123037070477047006A15
:1040CC000368DB681847000010B50F4C01212088ED
:1040DC0003F009FFFA2002F041FE2088002103F0D2
:1040EC0002FFFA2002F03AFE2088012103F0FBFEC9
:1040FC00FA2002F033FE2088002103F0F4FEBDE824
:10410C001040FA2002F02ABEACE3032038B5044676
:10411C00006928B185680C2103F043FF2846F8E7B5
:10412C00204638BD0A4B10B50446036001F098FFD9
:10413C00214602F09AF902F0B7FF02F0A9FF2046DF
:10414C00044B40F8043B02F07DF8204610BD00BF44
:10415C00AC850D0094850D0010B50446FFF7E2FF09
:10416C002046242103F01DFF204610BD0EB410B5CF
:10417C008DB00FAA016852F8044B03920023202043
:10418C00CDE90403CDE900421E2004AA01F0BCF8DD
:10419C000DB0BDE8104003B07047000008B5074AE9
:1041AC00074B0849084800F0B3FC20B10749084800
:1041BC00FFF7DCFF08BD0749F9E700BF98840D0045
:1041CC008C840D00A4840D0028E40320B1840D0020
:1041DC0010E70320C0840D0070B501F07DFB01F0E9
:1041EC000BFC404B404C1888012103F06BFE03F094
:1041FC002FF84FF4614103F025F8237D0BB1022316
:10420C00237203F025F8237D06462BB32368DB6865
:10421C0073B19A88062A01D09B68F9E7197B327C26
:10422C00914219D09B681BB19A88062AFAD1F5E7FE
:10423C002E49102003F0B7FE054600284FD010225F
:10424C00002104F00BF82A4B2B600623AB8023696A
:10425C00AB60337C2B732561237DABB12368DB68AA
:10426C002BB39A880E2A06D09B68F9E79B68F3B1AA
:10427C009A880E2AFAD11A7B042AF7D1DA89012AF4
:10428C0002D042F00102DA811A491B48FFF76EFF97
:10429C0019481A49FFF76AFFFFF780FF184800F02A
:1042AC0046FB18B117491448FFF760FF70BD0F4962
:1042BC00142003F078FE054678B11422002103F097
:1042CC00CDFF0B4B2B600E23AB802369AB6004231B
:1042DC002B730123EB812561D6E72075D4E720757C
:1042EC00BAE700BFACE30320B4E6032075890D00E8
:1042FC0010000300D6840D0010E70320DF840D00AE
:10430C0028E40320F9840D0038B50F490F48104CF0
:10431C00FFF72CFF254600226068114601F048F893
:10432C00034678B902460146606801F029F800227C
:10433C006868114601F02CF80028ECD0012002F03E
:10434C000DFDF4E738BD00BF12850D0010E703200A
:10435C0070E7032038B504460D460C480C49FFF7AE
:10436C0005FFFFF7D1FF0B4800F0E1FA08B9FFF7A2
:10437C0015FF2246084905482B46FFF7F7FE2A464B
:10438C0021460448BDE8384000F04DBC10E703203E
:10439C0033850D0028E4032048850D002DE9F047F6
:1043AC00364E374F374C02F053FF03681B69984762
:1043BC00002854DD02F04CFF0368334D5B699847CD
:1043CC003946C2B230702046FFF7D0FE2F4B327800
:1043DC00197839B12E490A7000221A702B78002BEB
:1043EC00E1D016E03B2A07D101222A491A70204657
:1043FC002A70FFF7BBFEF1E7274928480B68B3F595
:10440C00FF7F03F1010C26DB0124C2542C70C1F890
:10441C0000C0DFF88490DFF88480D9F800302049A0
:10442C002048002408F80340194B1A7801F028F8AA
:10443C001C484146FFF78EFF4FF400722146404660
:10444C0003F00CFF17481022214603F007FFC9F8B0
:10445C0000402C70A6E7C254C1F800C0BEE7124859
:10446C0000F065FA10B1104800F039FC02F0F0FED3
:10447C000368BDE8F0471B69184700BFDCE6032062
:10448C0064850D0010E70320B1E60320B0E30320A0
:10449C00B0E6032067850D0088E40320B0E4032018
:1044AC007F850D00CCE6032028E4032070B5D0E90D
:1044BC0000531426044606FB0356AE4204D028468D
:1044CC0001F074F81435F8E7206800F0C9FF2046B5
:1044DC0070BD8842F8B504460D46164616D9904272
:1044EC0015D2A2F11406751AA1F114072C44B74287
:1044FC001CD02CB13146204601F0D4F8337C237407
:10450C00304601F053F8143E143CF0E70ED0B5429F
:10451C000CD02CB12946204601F0C4F82B7C237416
:10452C00284601F043F814351434F0E7F8BD2DE9B2
:10453C00F0410023C0E9003383604F689F4204467A
:10454C000E4623DD4FF0140808FB07F000F080FF47
:10455C000546D8B1D4E9001208FB0212FFF7B9FFE7
:10456C00206800F07DFF2560A760D6E9007308FB8A
:10457C000378B84508D03946284601F0ADF83B7CA5
:10458C002B7414371435F4E7736863602046BDE868
:10459C00F0810000F0B58FB00024CDE90244049402
:1045AC0002F082FD2E4D064602A905A8FFF7BFFFBB
:1045BC002F4605A908A8FFF7BAFF2A4B47F8043B7A
:1045CC0008A90BA8FFF7B3FF0BAA1E21384602F06F
:1045DC009FF80BA8FFF76AFF08A8FFF767FF224BAD
:1045EC002B602E6205A8FFF761FF204B2B6002F0B9
:1045FC005BFD4FF4165102F047FD1D4E01F030FDEE
:10460C00294602F017F802A8FFF750FF3246194965
:10461C00284603F0C1FC18481849A0F80940034685
:10462C00021D43F8092B9C7001230375144B436046
:10463C003246C0E90344047203F0AEFC114D12493A
:10464C000094124B09684FF47A62284600F066F821
:10465C000F493246284603F09FFC0FB0F0BD00BF57
:10466C008CE4032094850D0064870D00AC850D004F
:10467C0024E4032031410D00B4E6032019410D0060
:10468C001000030028E40320A8E30320D5400D000C
:10469C001D4F0D0091F85C3010B50446016013B14C
:1046AC00886D00F0D1FC204610BD10B5036893F85E
:1046BC005C20044612B1986D00F0CEFC204610BD73
:1046CC00F8B51F469DF8243004460D4616462BB10E
:1046DC00012380F85C30583000F0AEFC089B23635B
:1046EC000023636306B1A66425B1294604F13800A2
:1046FC0000F0FDFF069B2365079BE069A4F84C7056
:10470C00FF2BB8BFFF23A4F8543008B1FFF7C1FC4E
:10471C00B4F85400FFF7B9FCE061F8BD2DE9FF4196
:10472C0004460025174698460E4603F0E1F80D495D
:10473C00E56104F1380000F084FF9DF82830A56491
:10474C00CDE90283FF220F23CDE90032204684F805
:10475C005C503B462A463146FFF7B2FF204604B078
:10476C00BDE8F0812E870D0010B50446204603F0FD
:10477C001BF80028FAD0204602F0CFFEC0B210BDC4
:10478C002DE9F0470546C4690F46FFF7EDFF207091
:10479C00EB6993F800A04FF001090AF0F00A4FF012
:1047AC0000084C462846FFF7DFFF2646EB69985574
:1047BC0000F07F0313FB09F3984401340306A4B201
:1047CC001FFA88F84FEAC919ECD4631EBAF1300FFE
:1047DC003B7024D12846EF69FFF7C6FF38552846B1
:1047EC00EF69F41CFFF7C0FF0236B6B2A4B2B8559D
:1047FC000226B6B2B1462746C14512D22846FFF76B
:10480C00B3FFB5F85430BB4288BFEB6909F101091D
:10481C0088BFD8550137BFB21FFA89F9ECE70026DB
:10482C00E7E7A8EB0600B0452CBF0646002634444B
:10483C00B5F85400A4B2A0422CBF20460020BDE81D
:10484C00F087F7B58C461E461D4607460023AE463C
:10485C0002A805F07F01BEF17F0F03F101040344B0
:10486C0088BF41F08001BEF17F0F4FEAD515E4B24D
:10487C0003F8041C10D8C4F10403D11802F803C0C7
:10488C00C4F10503134401A80532934206D010F875
:10489C00015B03F8015BF8E72346D8E7721C22445E
:1048AC00384602F064FD054600F09AFB621C786203
:1048BC003244A8B2131A5842584103B0F0BD13B594
:1048CC000446014601A8FFF7E5FEE369E0221A70F1
:1048DC00E36900225A70E1690222204602F047FD8A
:1048EC00204602F0BBFF00F07BFBC4E9090001A8E5
:1048FC00FFF7DBFE02B010BD0233F0B5044698B2F0
:10490C000023CD5C55B1B4F85460864203F1010725
:10491C0004D9461C15543B46B0B2F2E799B2441A7E
:10492C002244091202F8021C02F8013CF0BD38B511
:10493C00044602F032FD002814BF0125002502D1E7
:10494C00204602F08BFF284638BD00002DE9F047C9
:10495C0088B00446DDF840809DF850A08946174683
:10496C001E46FFF7E4FF0546002840F0CB802146A9
:10497C0001A8FFF78FFEA16C002940F08780B4F8E6
:10498C004C20A16B2B46204602F00CFE002879D05F
:10499C00012323849DF85430E269042B40F081807C
:1049AC00594B186899889B79ADF80C108DF80E301E
:1049BC000290C2F805009DF80E30BDF80C10A2F85C
:1049CC000910D3720C23B8F1000F7FD09DF848006A
:1049DC009DF84420400140EAC20040F00600C0B2FD
:1049EC00BAF1000F01D100F0FD001FB1002E6FD104
:1049FC0040F08000E269D054226DE169581C12121B
:104A0C000A549A1CE169206D88540333E2694946C3
:104A1C002046FFF771FF0346B8F1000F0BD0E26997
:104A2C0041462046FFF768FFE2691399034620468A
:104A3C00FFF762FF034667B1E26939462046FFF78C
:104A4C005BFF03462EB1E26931462046FFF754FF67
:104A5C000346053BE2699BB210212046FFF7F1FEAD
:104A6C0000F0BEFAC4E909004FF47A76204602F051
:104A7C009BFE80BB00F0B4FAA36AC01A236D73438B
:104A8C009842F3D9204602F0E9FE34E002A802F085
:104A9C009FFAB4F84C202B4602A9204602F008FEDF
:104AAC0074E71A4B186859681B7A0DF1080CACE8BE
:104ABC0003008CF8003002AB03CBC2F80500C2F83F
:104ACC0009109CF8003053730E237CE7022087E713
:104ADC0040F0C0008EE702A92046FFF751FE0428E3
:104AEC00D0D1E369DE78002ECCD100F079FA012523
:104AFC00A06284F82C6001A8FFF7D7FD284608B007
:104B0C00BDE8F0870025F9E7D5850D00DC850D00A3
:104B1C0010B54FF0040C86B00124CDE9044C0024F0
:104B2C00CDE90244CDE90044FFF710FF06B010BDFB
:104B3C002DE9F74FDDF83C809DF834509DF8389006
:104B4C0004468B4616461F46FFF7F1FE82460028A8
:104B5C0051D0214601A8FFF79DFDB4F85420E0691F
:104B6C00002103F07BFB0523E26959462046FFF741
:104B7C00C3FE6B1E012B15D8218CE369013189B260
:104B8C00218409121954421CE369218C92B202301F
:104B9C00995480B2B8F1000F04D0238C5A1C228493
:104BAC00A8F8003000210B188F42E2699BB20AD999
:104BBC00B4F854C09C4506D916F801C002F803C0DD
:104BCC00013189B2EFE79DF8301000290CBF30217C
:104BDC003121B9F1000F01D041F00801022D0ED1A5
:104BEC0041F00401053B9BB22046FFF72AFE8246AA
:104BFC0001A8FFF75AFD504603B0BDE8F08F012D18
:104C0C0008BF41F00201EDE71FB5089C0394002496
:104C1C0002949DF81C4001949DF818400094FFF7F5
:104C2C0087FF04B010BD30B587B00446104605911F
:104C3C00049203F068FB00250346CDE90155DDE93C
:104C4C00042100952046FFF7DFFF07B030BD73B598
:104C5C0004460E46FFF76BFE0546C8B1214601A877
:104C6C00FFF718FDE36962221A70E36902225A7099
:104C7C00E36932129A70E369DE70E169042220461E
:104C8C0002F075FB051E01A818BF0125FFF70DFDED
:104C9C00284602B070BD73B504460E46FFF747FEBA
:104CAC000546C8B1214601A8FFF7F4FCE36972225E
:104CBC001A70E36902225A70E36932129A70E3693E
:104CCC00DE70E1690422204602F051FB051E01A8AA
:104CDC0018BF0125FFF7E9FC284602B070BD2DE98D
:104CEC00F04F2DED028B87B000AF0446FFF71FFE8F
:104CFC008146F8B1214607F11400FFF7CBFC00F018
:104D0C006FF9226D4FF47A735343A26A821A9A4256
:104D1C00064603D8626A821A934221D294F82C3048
:104D2C007BB1204602F09AFD4FF0000907F1140008
:104D3C00FFF7BBFC48461C37BD46BDEC028BBDE8FB
:104D4C00F08FE269C0211170E2695370E1690222AF
:104D5C00204602F00CFBC4E90966012384F82C30D0
:104D6C00204602F021FD0028E0D007F11301204677
:104D7C00FFF706FD83460028D8D0E369A6621978B0
:104D8C0001F0F002302A7FD1D4F830A0BAF1000F34
:104D9C00CCD097F813C06A4608EE102A03EB0C022D
:104DAC005578917801EB05218DB205F10802694621
:104DBC00D208A1EBC20295460CF10302FA6003EB98
:104DCC00020E0DEB05026846C7F808D07A60D7E9E9
:104DDC0001218A4206D00A461EF8018B02F8018B8B
:104DEC00BA60F4E70022425593F80080F96808F0A5
:104DFC000608ABEB0C02033AB8F1020FA2EB05026A
:104E0C00294425D113F801E01944023A91F801B074
:104E1C000CF10501294419440BEB0E2BD047E36927
:104E2C0040221A70E3691FFA8BFB83F80180E36957
:104E3C004FEA2B229A70E36983F803B0E1690422EC
:104E4C00204602F094FA666218EE103A9D466DE721
:104E5C00B8F1040F15D113F801E01944023A91F896
:104E6C0001B00CF10501294419440BEB0E2BD04772
:104E7C00E36950221A70E36902221FFA8BFB5A7005
:104E8C00D5E71944D047DFE7502A08D19A78D9786A
:104E9C0001EB022189B22046FFF7D9FE46E7402AF2
:104EAC0012D1626B002A3FF441AFBBF1040F7FF4C7
:104EBC003DAF11F0060F7FF439AF9978D87800EB3D
:104ECC00012080B2904731E7602A08D19A78D978CE
:104EDC0001EB022189B22046FFF7DDFE26E7702A9E
:104EEC00DFD0902A3FF422AFC02A0AD1D0221A7008
:104EFC00E36900225A70E1690222204602F037FA77
:104F0C0014E7D02A04BF002384F82C300EE70000ED
:104F1C0038B50546FFF70BFD10B12846FFF7CFFC5F
:104F2C00E86908B1FFF7B5F805F1380000F03EFB71
:104F3C00AC690A4B2B607CB16368013B63605BB965
:104F4C00236820469B689847A368013BA3601BB964
:104F5C0023682046DB689847284638BDEC880D004E
:104F6C0008B5024B1B689B68019308BD68020300DF
:104F7C0008B5024B1B68DB68019308BD680203008F
:104F8C0008B5024B1B689B68019308BD2C020300FB
:104F9C0008B5024B1B68DB68019308BD2C020300AB
:104FAC0008B5024B1B681B69019308BD2C0203005A
:104FBC0008B5024B1B685B69019308BD6C020300CA
:104FCC0008B5024B1B685B68019308BD180203000F
:104FDC0008B5024B1B68DB68019308BD180203007F
:104FEC0008B5024B1B685B69019308BD18020300EE
:104FFC0008B5024B1B689B68019308BD780203003F
:10500C0008B5024B1B68DB68019308BD78020300EE
:10501C0008B5034B1B68D3F89830019308BD00000A
:10502C007802030008B5034B1B68D3F8F0300193EA
:10503C0008BD00007802030008B5024B1B681B6B0F
:10504C00019308BD4802030008B5024B1B689B6B1B
:10505C00019308BD4802030008B5024B1B681B6C8A
:10506C00019308BD4802030008B5024B1B685B6C3A
:10507C00019308BD4802030008B5024B1B689B6CEA
:10508C00019308BD4802030008B5024B1B68DB6C9A
:10509C00019308BD4802030008B5024B1B685B6D09
:1050AC00019308BD4802030008B5024B1B685B69FD
:1050BC00019308BD6402030008B5024B1B681B6A10
:1050CC00019308BD6402030008B5024B1B689B6A80
:1050DC00019308BD6402030008B5024B1B681B68F2
:1050EC00019308BD3C02030008B5024B1B689B688A
:1050FC00019308BD3C02030008B5024B1B68DB683A
:10510C00019308BD3C02030008B5024B1B681B69E8
:10511C00019308BD3C02030008B5024B1B685B6998
:10512C00019308BD3C02030008B5024B1B689B6948
:10513C00019308BD3C02030008B5024B1B68DB69F8
:10514C00019308BD3C02030008B5024B1B681B6AA7
:10515C00019308BD3C02030008B5024B1B689B6A17
:10516C00019308BD3C02030008B5024B1B68DB6AC7
:10517C00019308BD3C02030008B5024B1B681B6A77
:10518C00019308BD2802030008B5024B1B685B6A3B
:10519C00019308BD2802030008B5024B1B689B6AEB
:1051AC00019308BD2802030008B5024B1B68DB6A9B
:1051BC00019308BD2802030008B5024B1B681B6B4A
:1051CC00019308BD2802030008B5024B1B685B6BFA
:1051DC00019308BD2802030008B5024B1B681B6C29
:1051EC00019308BD2802030008B5024B1B689B699C
:1051FC00019308BD3802030008B5024B1B68DB693C
:10520C00019308BD3802030008B5024B1B681B6AEA
:10521C00019308BD3802030008B5024B1B689B6A5A
:10522C00019308BD3802030008B5024B1B681B6BC9
:10523C00019308BD3802030008B5024B1B689B6B39
:10524C00019308BD3802030008B5024B1B68DB69EB
:10525C00019308BD3002030008B5024B1B681B6AA2
:10526C00019308BD3002030008B5024B1B681B6894
:10527C00019308BD4C02030008B5024B1B685B6828
:10528C00019308BD4C02030008B5024B1B689B68D8
:10529C00019308BD4C02030008B5024B1B681B6947
:1052AC00019308BD4C02030008B5024B1B685B69F7
:1052BC00019308BD4C02030008B5024B1B689B69A7
:1052CC00019308BD4C02030008B5024B1B68DB6957
:1052DC00019308BD4C02030008B5024B1B681B6A06
:1052EC00019308BD4C02030008B5024B1B685B6BB5
:1052FC00019308BD6002030008B5024B1B681B6DCF
:10530C00019308BD6002030008B5024B1B685B6D7E
:10531C00019308BD6002030008B5024B1B68DB6EED
:10532C00019308BD6002030008B5024B1B681B6F9C
:10533C00019308BD6002030008B5024B1B685B6853
:10534C00019308BD2002030008B5024B1B685B6982
:10535C00019308BD2002030008B5034B1B68D3F86A
:10536C008830019308BD00002002030008B5034BF0
:10537C001B68D3F89430019308BD00002002030091
:10538C0008B5024B1B685B68019308BD4002030023
:10539C0008B5024B1B689B68019308BD40020300D3
:1053AC0008B5024B1B68DB68019308BD4002030083
:1053BC0008B5024B1B681B69019308BD4002030032
:1053CC0008B5024B1B685B69019308BD40020300E2
:1053DC0008B5024B1B689B69019308BD4002030092
:1053EC0008B5024B1B68DB69019308BD4002030042
:1053FC0008B5024B1B681B6A019308BD40020300F1
:10540C0008B5024B1B681B6B019308BD40020300DF
:10541C0008B5024B1B685B6B019308BD400203008F
:10542C0008B5024B1B681B6C019308BD40020300BE
:10543C0008B5024B1B685B6C019308BD400203006E
:10544C0008B5024B1B68DB6B019308BD44020300DB
:10545C0008B5024B1B681B68019308BD1C020300B6
:10546C0008B5024B1B685B68019308BD1C02030066
:10547C0008B5024B1B689B68019308BD1C02030016
:10548C0008B5024B1B68DB68019308BD1C020300C6
:10549C0008B5024B1B685B6A019308BD1C02030034
:1054AC0008B5024B1B68DB6B019308BD1C020300A3
:1054BC0008B5024B1B685B6C019308BD1C02030012
:1054CC00002240681146FFF793BF00224068114646
:1054DC00FFF79EBF40680022FFF792BF4068002292
:1054EC0081F00101FFF77CBF002340681A46194682
:1054FC00FFF76EBF002340681A461946FFF760BFDE
:10550C00002240681146FFF753BF00224068114645
:10551C00FFF73EBF406800220221FFF741BF002386
:10552C0040681A46FFF72CBF024B03225A60024A0E
:10553C001A607047E0E60320F0850D0010B50446B4
:10554C0008462170FFF780FE00236360204610BDE3
:10555C0010B50446006818B1FFF782FF00232360E2
:10556C0010BD10B50446FFF7F3FF204610BD000038
:10557C0010B5094B094C022200201A60084B206020
:10558C00A080A071A360FFF7D7FE2046054A06490C
:10559C00BDE8104002F000BDF4E60320E8E603206D
:1055AC000000FFFF24E403206F550D0010B50446E6
:1055BC000068FFF755FF204610BD10B50446006883
:1055CC0008B1FFF74DFF0023C4E90133236010BD80
:1055DC0038B504460D4600680131FFF749FF10B19C
:1055EC00C4E90005012038BD10B50368044623B199
:1055FC0043688B4201D3012010BD2046FFF7E8FF22
:10560C000028F9D0A368002BF5D122681370F2E7BB
:10561C0037B50D46114601920446FFF7E5FF019A96
:10562C0028B92046FFF7C9FF204603B030BDA26061
:10563C002946206802F0EAFD2268A3680021D154B3
:10564C00F2E7002313B5C0E900330446836003730B
:10565C0041B10846019102F056FE019902462046DE
:10566C00FFF7D6FF204602B010BD38B505460068DE
:10567C000C4668B16A688B689A4207D3096802F0D5
:10568C003AFEA368AB600023A36038BDFFF7E8FEC9
:10569C0023682B6063686B60A368AB600023C4E96C
:1056AC000033F1E710B50023C0E9003304468360F2
:1056BC000373FFF7DAFF204610BD884210B504468D
:1056CC0005D00B682BB18A681946FFF7A1FF20465D
:1056DC0010BDFFF772FFFAE710B500230446C0E9CE
:1056EC00003383600373FFF7E8FF204610BD13B54A
:1056FC00044659B10846019102F005FE0199024693
:10570C002046FFF785FF204602B010BDFFF755FF7E
:10571C00F9E77047064B994210B500F10C0405D01F
:10572C00084602F045FC002808BF0024204610BDA6
:10573C00CC860D0010B53021044602F032FC204618
:10574C0010BDFEF7A4BC10B5036804469B689847CF
:10575C00A368013BA3602BB923682046DB68BDE836
:10576C001040184710BD10B50446006808B1FFF78B
:10577C0083FC204610BD000010B500230370044BC1
:10578C0004461868FFF780FC01232370204610BDE7
:10579C00FCE6032010B5037804461BB1024B1868D5
:1057AC00FFF77AFC204610BDFCE603200022426085
:1057BC0002608271704708B582798B799A4206D162
:1057CC00062202F015FDB0FA80F0400908BD002059
:1057DC00FCE710B5D0E9063203EBC202934218463F
:1057EC0006D0046824888C4203F10803F6D110BD5E
:1057FC000020FCE738B50024046005463020FEF795
:10580C0042FC034688B10122C0E90122094A026028
:10581C004FF6FF7282810E30FFF7C8FFC3E90644D2
:10582C00C3E90844C3E90A44DC826B600C332B6087
:10583C00284638BDB8860D00096851F8022F026061
:10584C004A68426070471FB50B4601681A680988A0
:10585C00128891420CD101466846FFF7EDFF02A871
:10586C001946FFF7E9FF02A96846FFF7A4FF00B944
:10587C00002005B05DF804FB10B504463420FEF79B
:10588C0002FC014668B10023C0E90033C0E90233D1
:10589C00C0E90433C0E90633C0E90833C0E90A3370
:1058AC000363216019B90A4A0A20FFF71DFD002085
:1058BC00FFF79EFB20B1064A00210A20FFF714FDDA
:1058CC00216804480022FFF7ADFB204610BD00BF45
:1058DC00DD4F0D00655B0D0010B50B4C2378BFF34D
:1058EC005B8FDB070ED42046FEF7E0FB50B1074878
:1058FC00FFF7C2FF2046FEF7DEFB054A05490348C9
:10590C0002F04AFB014810BDF8E6032000E7032033
:10591C0024E40320A7590D000B68036013B15A68E7
:10592C0001325A60704710B50446006828B14368CC
:10593C00013B43600BB9FFF706FF204610BD70B565
:10594C00D0E90053044605EBC306AE4204D0281D33
:10595C00FFF7E9FF0835F8E72068FFF781FD2046DF
:10596C0070BD70B5D0E90053044605EBC306AE42DA
:10597C0004D0281DFFF7D7FF0835F8E72068FFF79C
:10598C006FFD204670BD10B504462430FFF7E9FFCB
:10599C0004F11800FFF7D3FF10BDF8B504680646F4
:1059AC00C4B1D4E9065305EBC307AF4204D0281D9C
:1059BC00FFF7B9FF0835F8E7A069FFF751FD04F1CF
:1059CC000C00FFF7CEFF2046FFF7B9FF342120462D
:1059DC0002F0E7FA3046F8BD70B5D0E90053044642
:1059EC0005EBC306AE4204D0281DFFF79CFF08351B
:1059FC00F8E70023636070BD37B5054601A8FFF7D3
:105A0C00BBFE0020FFF7FCFA041E04DB28681830EC
:105A1C00FFF7E2FF002401A8FFF7BCFE204603B00D
:105A2C0030BD8842F8B506460C46154618D990424A
:105A3C0017D2A2F10805A1F10807691A4418AF4260
:105A4C0020D02E1D34B120462B6840F8043B314643
:105A5C00FFF762FF3046FFF766FF083D083CEEE7B4
:105A6C0010D0AC420ED0271D36B13046236840F81A
:105A7C00043B3946FFF750FF3846FFF754FF083414
:105A8C000836EEE7F8BD2DE9F041D0E900430546B4
:105A9C00884604EBC307A7421AD041462046FFF7BD
:105AAC00D2FE064608B90834F5E79CB1201DFFF775
:105ABC003AFFD5E9003204F1080103EBC20220469B
:105ACC00FFF7AFFF6B68013B6B603046BDE8F081C0
:105ADC000026FAE72646F8E7F7B5044651F8043BEA
:105AEC004768009301A8FFF717FFD4E901639E42B2
:105AFC0012DB0136002E2CDDF000FFF7A9FC054669
:105B0C0008B3D4E9001201EBC202FFF78AFF206848
:105B1C00FFF7A6FC2560A6602668626806EBC70541
:105B2C0006EBC202294605F10800FFF77AFF35B1F2
:105B3C00009B46F8373001A9281DFFF7EDFE63687E
:105B4C0001336360012501A8FFF7EDFE284603B081
:105B5C00F0BD0025DBE700002DE9F04104468EB0D6
:105B6C0003A80D46FFF708FE2368032B07D0042B70
:105B7C0048D003A8FFF70EFE0EB0BDE8F08104A8D4
:105B8C00FFF738FE049B22891A806268049952F848
:105B9C00083FC1F802305368C1F8063007A8049BCF
:105BAC00069305A9FFF7B8FE06A905F11800FFF743
:105BBC0093FF044607A8FFF7B6FE202306938CB983
:105BCC00334B344900933220234606AA0794FFF73F
:105BDC0093FB049B21461888FFF71AFA05A8FFF7D8
:105BEC00A2FEC6E72C4A009200232A49079306AA74
:105BFC000120FFF781FB6B6A002BEFD0E96A04A848
:105C0C009847EBE721892846FFF7E3FD0646002875
:105C1C00AFD00468D4E906314FF6FF72228003EB53
:105C2C00C101994203D053F8080B4280F9E7D4E93B
:105C3C00037307EBC308B84504D0381DFFF773FE98
:105C4C000837F8E700232361D4E9067307EBC30890
:105C5C00B84504D0381DFFF766FE0837F8E7002377
:105C6C00E3616381AB6A13B1296B3046984700231B
:105C7C002022CDE90623094A0092064906AA0120F2
:105C8C00FFF73AFB314605F11800FFF7FCFE70E711
:105C9C004B860D0024860D0071860D008E860D003E
:105CAC0010B5064C002320462360FFF7DDF9204693
:105CBC00034A0449BDE8104002F06EB9FCE603202B
:105CCC0024E4032073570D00F8B506460D468F18D3
:105CDC000024BD420CD0336815F8011B9B6830467C
:105CEC009847031E01DB1C44F3E7002C08BF1C463D
:105CFC002046F8BD13B50446084659B1019102F08F
:105D0C0002FB23680199DB680246204602B0BDE81D
:105D1C001040184702B010BD03689B68184738B58F
:105D2C000D210546FFF7F8FF0A2104462846FFF728
:105D3C00F3FF204438BD30B58BB000238DF82430F0
:105D4C00012A98BF0A2209AC0D46B1FBF2F101FB06
:105D5C00125303F0FF03092B94BF30333733DBB2FC
:105D6C00AA4204F8013DEFD92146FFF7C3FF0BB05F
:105D7C0030BD2DE9F04186B000AF05460E46381D0A
:105D8C00142114463B60FFF783FB13280ED8391DF2
:105D9C002846FFF7AFFF04461EB12846FFF7BFFFAA
:105DAC00044420461837BD46BDE8F08100F10803D5
:105DBC0023F00703E846ADEB030D2246411C3B687C
:105DCC006846FFF765FB69462846FFF793FF0446D4
:105DDC00C546E1E780680368DB68184770470846EA
:105DEC0011B10B685B681847704770477047704774
:105DFC0038B504460D4600682E2102F068FA236877
:105E0C00C31A2B6023B1037803B1013023682060DF
:105E1C00184638BD10B50C21044602F0C2F82046D5
:105E2C0010BD10B50421044602F0BBF8204610BD8D
:105E3C0010B50421044602F0B4F8204610BD08B594
:105E4C0002F04FFAB0FA80F0400908BD10B50C46CC
:105E5C0001F02AF9844210D001F0FAF9844205D1FC
:105E6C0001F0F6F9BDE8104001F0EFB92CB1236850
:105E7C0020465B68BDE81040184710BD13B50446BA
:105E8C000846019102F03FFA01990246204602B001
:105E9C00BDE8104001F0C8BF13B504460846019197
:105EAC0002F031FA23680199DB680246204602B001
:105EBC00BDE81040184707B503688DF80710DB687C
:105ECC0001220DF10701984703B05DF804FB0EB4F5
:105EDC0003B503AB002153F8042B006A0193FFF7C1
:105EEC0048FF02B05DF804EB03B070472DE9F74FA3
:105EFC00D0E900954FF0140808FB05F50093AB10A2
:105F0C00184D17465D434C46002D23DD6E1008FBE3
:105F1C0006F004EB000A3A46BAF804B02058019196
:105F2C005F4528BF5A4602F0F6F90199012378B96A
:105F3C005F4503D1009A13703546E5E78CBF01200D
:105F4C0000200028F8D0AE1B0AF11404013EF3E740
:105F5C00C00FF6E7A4EB09040248A410604303B099
:105F6C00BDE8F08FCDCCCCCC7FB50369067E01911A
:105F7C000BB301B3002500F10C04039503A901A890
:105F8C00FFF736FF0146B0B10DF10B03039A8DF804
:105F9C000B502046FFF7AAFF9DF80B305BB124682D
:105FAC00142303FB004000F10804B0F90630002B69
:105FBC00A8BFDEB2E2E7304604B070BD10B50A4CA3
:105FCC002378BFF35B8FDB070BD42046FEF76EF80C
:105FDC0038B12046FEF76FF8044A0549054801F030
:105FEC00DBFF044810BD00BF08E7032024E40320B6
:105FFC00F95D0D00B4E3032010B50A4C2378BFF310
:10600C005B8FDB070BD42046FEF750F838B12046E7
:10601C00FEF751F8044A0549054801F0BDFF044854
:10602C0010BD00BF0CE7032024E40320F75D0D0036
:10603C00B8E3032038B500250446C0E90055C0E993
:10604C0004558560856140F8245FFFF70DF8FFF774
:10605C00B5FFE061FFF7D0FF25732062204638BD05
:10606C0010B50B4C2378BFF35B8FDB070ED42046A7
:10607C00FEF71CF850B10748FFF7DCFF2046FEF78F
:10608C001AF8054A0549034801F086FF014810BD7E
:10609C0004E7032014E7032024E4032001650D002A
:1060AC00024A034903480023FFF73EB9DD630D00A4
:1060BC0069630D00E9620D0000231A461946184663
:1060CC00FFF732B937B50D6951F8043B009304461C
:1060DC0001A8FFF721FC6A462946204601F04EFD37
:1060EC0001A8FFF720FC204603B030BD37B58D6802
:1060FC0051F8043B0093044601A8FFF70DFC6A46D7
:10610C002946204601F0B6FD01A8FFF70CFC2046FD
:10611C0003B030BD37B5CD6851F8043B009304464D
:10612C0001A8FFF7F9FB6A462946204601F07EFDDF
:10613C0001A8FFF7F8FB204603B030BD70B58AB05C
:10614C000D46014604A8FFF7D1FF144E04A801F038
:10615C00A9FDE8B104A96846FFF7DCFF02983146B7
:10616C00FFF76DFE044610B12C1E18BF012401A8C8
:10617C00FFF7D9FB002CE9D004A96846FFF7A2FF72
:10618C00684601F031FD286001A8FFF7CCFBDDE784
:10619C0005A8FFF7C8FB0AB070BD00BFD4860D0080
:1061AC0037B50C4620461249154602F09AF848B904
:1061BC0000F07AFF4FF4165100F066FF00F074FF08
:1061CC0003B030BD0B49204602F08BF870B94FF488
:1061DC00165301A928460193FFF7B0FF01F038F8D8
:1061EC00019901F02FF801F033F8E9E70020E7E717
:1061FC00D9860D00E0860D0070B5D0E90053142649
:10620C00044606FB0356AE4205D005F10800FFF725
:10621C00F3FF1435F7E72068FFF722F9204670BD2D
:10622C0070B5D0E90053044605EB0316AE4204D01A
:10623C002846FFF7BBF91035F8E72068FFF710F98F
:10624C00204670BD10B504460C30FFF7D5FF204634
:10625C00FFF7E6FF204610BD10B5044B044640F88E
:10626C00043BFFF7EFFF204610BD00BF94850D00E7
:10627C0010B50446FFF7F0FF2046242101F091FEF3
:10628C00204610BD10B5034B03600446FFF7E4FF36
:10629C00204610BD7C870D0010B50446FFF7F2FFB9
:1062AC002046242101F07DFE204610BD0022C0E9CD
:1062BC00002210B582600C6804604C6844608C68E5
:1062CC000A604A6084608A6010BD10B50368044699
:1062DC001868FEF7E1FE204610BD00002DE9F04FD6
:1062EC0087B0804603931C4B5B68C3F30803894655
:1062FC0016466BB9FFF7B4FE044600F12403406A5E
:10630C000593FEF7C1FE237B2BB105A8FFF7DDFF3C
:10631C0007B0BDE8F08F01232373D4E900535FFA73
:10632C0089F905EB830AAA4512D055F8047B31464E
:10633C00381DFFF719FE8145F5D33B68039A00928F
:10634C00D3F808B04A46334641463846D847EAE7C0
:10635C0000232373D9E700BF00ED00E02DE9F74FD0
:10636C009B461A4B5B68C3F3080380468946164666
:10637C006BB9FFF775FE044600F12403406A0193E4
:10638C00FEF782FE237B2BB101A8FFF79EFF03B023
:10639C00BDE8F08F01232373D4E90053F6B205EB6B
:1063AC00830A55450ED055F8047B5946381DFFF726
:1063BC00DBFD8642F5D33B684A46DB6841463846EE
:1063CC009847EEE700232373DEE700BF00ED00E003
:1063DC002DE9F341164B5B68C3F3080305460F46E2
:1063EC001BBBFFF73DFE00F124030446406A0193FA
:1063FC00FEF74AFED4E90063462406EB8308B04559
:10640C0009D101A8FFF761FFA542B4BF002001200C
:10641C0002B0BDE8F08156F8040B39460430FFF7A2
:10642C00A3FD8442A8BF0446E9E70020F0E700BFC3
:10643C0000ED00E070B50446D0E900020B4600EB1D
:10644C008202824207D001461D6851F8046BAE42AD
:10645C0003D00846F5E7002070BD521A01F0E4FEA7
:10646C006368013B63600120F6E71FB500F124036C
:10647C000446406A01910393FEF706FE01A92046EB
:10648C00FFF7D8FF18B163680BB9FFF715FE03A827
:10649C00FFF71BFF04B010BD70B5D0E904561823EC
:1064AC00044603FB0656AE4215D005F110012046FA
:1064BC00FFF7C0FF63680BB9FFF7FEFDE0692969C0
:1064CC000368DB689847696919B1206A0368DB685F
:1064DC0098471835E7E7D4E90453182606FB03560A
:1064EC00AE4204D02846FFF761F81835F8E70023D0
:1064FC00636170BD73B50446FFF7DEFD04F1240340
:10650C00606A0193FEF7C0FD2046FFF7C5FF01A8A6
:10651C00FFF7DBFE606A08B1FEF7AEFDD4E9045369
:10652C00182606FB0356AE4204D02846FFF73EF869
:10653C001835F8E72069FEF793FF2068FEF790FF07
:10654C00204602B070BD8842F8B506460C4615468A
:10655C0027D9904226D2A2F114056C1AA1F1140786
:10656C0004440026AF423DD0A4B12B682360AB8815
:10657C00A380B5F90630E380C4E902662661AB68F6
:10658C00A360AE60E368EA68E260EB6023692A69A5
:10659C0022612B6105F10800FFF72EFE143D143C1F
:1065AC00E0E71FD00027AC421CD0A6B123683360B3
:1065BC00A388B380B4F90630F380C6E9027737615B
:1065CC00A368B360A760F368E268F260E3603369C4
:1065DC0022693261236104F10800FFF70DFE1434C7
:1065EC001436E0E7F8BDF8B5D0E901539D420446F6
:1065FC000E4617460DDB0135002D006804DDA900A1
:10660C00FEF736FF18B9F8BDFEF72AFF0020206010
:10661C00A5602568626805EB86019200A2EB8602F4
:10662C00081D01F001FE45F82670636801336360B4
:10663C000120E8E737B500F124030446406A0193D2
:10664C000D46FEF721FDD4E9003103EB81008342B6
:10665C001A460BD01268AA4203F10403F7D101A821
:10666C00FFF733FE0025284603B030BD2A462046EE
:10667C00FFF7B9FF05460028F1D06368012B01D163
:10668C00FFF70EFD01A8FFF720FEECE78842F8B5F6
:10669C0004460D46164614D9904213D2A2F11006A8
:1066AC00751AA1F110072C44B74218D01CB1314611
:1066BC002046FEF7F7FF3046FEF778FF103E103C01
:1066CC00F2E70CD0B5420AD01CB129462046FEF7A1
:1066DC00E9FF2846FEF76AFF10351034F2E7F8BDE3
:1066EC0070B50E1E054611DD3001FEF7B1FE0446F5
:1066FC0058B1D5E9001201EB0212FFF7C7FF286869
:10670C00FEF7AEFE2C60AE60012070BD0024F6E7F3
:10671C002DE9F04F914697B000230391D9F804105E
:10672C000C9346229942C0E90033C0E90233C0E918
:10673C000433CDE90A330446027623DCD9E9005749
:10674C00142303FB0757AF423BD029460DA8FEF795
:10675C00A9FF0DA911A80B9EFEF7A4FFDDE90B13F1
:10676C0099421BDA0A9B0B9A03EB061603EB0212F7
:10677C00314606F11000FFF789FFEEB90B9B013390
:10678C000B9311E00AA8FFF7ABFF0028D6D10AA89B
:10679C00FFF746FD204617B0BDE8F08F01310AA87F
:1067AC00FFF79EFF0028DDD111A8FEF7FFFE0DA814
:1067BC00FEF7FCFE1435C6E711A93046FEF772FF52
:1067CC00DCE70026CDE90D660F9637464FF0140A2C
:1067DC00DDE90A239E4280F297803301D358089357
:1067EC000BB90136F4E70AFB06F3099702930DADDA
:1067FC0009A908A8FFF7FCFA83460028F1D0014646
:10680C00099A8DF81F700DF11F032846FFF76EFBD8
:10681C009DF81F800190B8F1000F66D1BDF82430AF
:10682C00ADF84830CDE913884FF6FF73CDF844B07E
:10683C00ADF84A30CDF85480D5E9013293421ADBD9
:10684C0003F1010BBBF1000F4ADD0AFB0BF0FEF765
:10685C00FFFD0490002845D0D5E900120AFB021276
:10686C00FFF771FE049B28680493FEF7F9FD049B67
:10687C002B60C5F808B0019BD5F800B06A680AFB1C
:10688C0003F30BEB030101F114000AFB02B20491B8
:10689C000593FFF758FE0499A9B1059B119A4BF883
:1068AC000320BDF848308B80BDF94A30CB80C1E95C
:1068BC0002770F61139B8B60149B1397CB60159B16
:1068CC0014970B6115976B6801336B6013A8FFF776
:1068DC0093FCB8F1000F08D00DA8FFF78DFC56E71C
:1068EC004346C0E74FF00108F0E7019B2D680AFB17
:1068FC000355089B1B782BB9D9F80030029A134426
:10690C001B7CEB80083573E721682260626863604A
:10691C00A3680B920C9A0C93E368A2600D9A0D93EA
:10692C002369E2600E9A0E93636922610F9A0F93AA
:10693C00039B0A9162612376CEE700007FB5054682
:10694C00094B45F8043B04460E4601A81146FDF7D9
:10695C00EEFD01AA31462846FFF7DAFE01A8FDF745
:10696C00A5FD204604B070BD94850D00F0B50F4612
:10697C0087B026490C9C384616461D4601F0B1FCE2
:10698C0000BBE4B129466846FFF790FC204924205F
:10699C0001F009FB054670B1694603A8FDF7C7FD78
:1069AC0003AA31462846FFF7C9FF03A8FDF77EFD71
:1069BC00184B2C622B606846FDF778FD2C46204660
:1069CC0007B0F0BD1449384601F08BFCE0B9002C3F
:1069DC00F5D029466846FFF769FC0D49242001F0E3
:1069EC00E2FA05460028E6D0694603A8FDF79FFDAC
:1069FC0003AA31462846FFF7A1FF03A8FDF756FD71
:106A0C00064B2B602C62D6E70024D8E7E8860D00F5
:106A1C0075890D007C870D00EC860D0064870D00D8
:106A2C00014B024A1A60704710E70320FD860D00E7
:106A3C002DE9F047089DD0F8209004460E461746E5
:106A4C00984600F031FB81454CD02B79190704D5C1
:106A5C006A6954492046FFF73AFAB8F1000F0DD095
:106A6C005B212046FFF727FA41462046FFF714FA30
:106A7C0023684D49DB680222204698472B79DA07B8
:106A8C0023D5D5F808802F21404601F056FC08B1DB
:106A9C0000F1010841462046FFF7FEF92B799B07D0
:106AAC0008D53A212046FFF706FAEA683F49204606
:106ABC00FFF70DFA2A79236812F0040FDB6814BF74
:106ACC003B493C490222204698472B7958071DD553
:106ADC0029690B461A4613F8010B60B1202808D11E
:106AEC001946F7E7344800F04EFF0028ADD0BDE85A
:106AFC00F0872828EED12368521ADB682046984785
:106B0C0023682E49DB68042220469847002138462A
:106B1C00FEF702FC01462046FFF7BEF92368254923
:106B2C00DB680222204698471EB131462046FFF70B
:106B3C00B3F92B7913F0300F2CD023682049DB6884
:106B4C000222204698472B79D9060AD523681D497D
:106B5C00DB68072220469847AA691B492046FFF7A5
:106B6C00B6F92B799A0611D5DB0605D523681049A1
:106B7C00DB6802222046984723681449DB682046CC
:106B8C000A229847E9692046FFF786F95D212046DD
:106B9C00FFF791F923680E49DB6820460222BDE815
:106BAC00F047184701870D0008870D00C4880D00B9
:106BBC000B870D0010870D00C0E703200E870D001A
:106BCC0013870D0016870D001E870D0021870D0001
:106BDC002C870D002DE9F04385B0D0F820900C9C4B
:106BEC0005460F4690461E4600F05EFA814505D1DB
:106BFC00494800F0C8FE002840F08A802B6A474ABA
:106C0C0001924FF0000901A803938DF8089001F050
:106C1C0072F849464046FEF77FFB41498046012207
:106C2C0001A801F0F1F84146FFF728F93FB13D49C1
:106C3C00012201A801F0E8F83946FFF71FF93EB12F
:106C4C003949012201A801F0DFF83146FFF716F9A6
:106C5C002379DF070ED5A6682F21304601F06DFB96
:106C6C0000B1461C3149012201A801F0CDF8314692
:106C7C00FFF704F923799E0707D52D49022201A8B5
:106C8C0001F0C2F8E16801F043F82379580714D5F4
:106C9C00266933461F4613F8012B2AB1202A01D14D
:106CAC001E46F7E7282AF5D12249022201A801F055
:106CBC00ABF8BA1B314601F0B7F82379190707D5A1
:106CCC001D49012201A801F09FF8616901F032F819
:106CDC002379DA0608D5042218490DEB020001F0DD
:106CEC0093F8A16901F014F823799B0607D5144990
:106CFC00062201A801F088F8E169FFF7BFF801A8A6
:106D0C0000F0E3FF286A0F4903680222DB6898470A
:106D1C0005B0BDE8F08300BFC0E703204C870D0031
:106D2C00DE860D00D3850D0065850D002F870D00C7
:106D3C0031870D0034870D00D4840D0037870D008A
:106D4C003C870D002C870D00024B1A68024B1A6011
:106D5C00704700BFBCE303203CE703200021FEF793
:106D6C00F3BA10B58368044613B103220146984761
:106D7C00204610BD10B50446FFF7F3FF204610BDAA
:106D8C000348044A04490023836001F005B900BF9D
:106D9C0040E7032024E40320816D0D00014B1860B3
:106DAC00704700BFC0E3032008B50B4B43B100F0A4
:106DBC007BF903681B699847002801DDAFF300805D
:106DCC00064B43B100F044FA03681B69984700284E
:106DDC0001DDAFF3008008BD0000000000000000E2
:106DEC0008B5FFF7E1FFFEF7FBF8014B186008BD93
:106DFC00D4E703200248034A0349121A01F006BAE9
:106E0C0000F4032004F40320908B0D0007B500233D
:106E1C0000931A466FF07701FEF7A8FA03B05DF8FD
:106E2C0004FB000007B543880A2B08D0502B0BD16C
:106E3C00094B1B684BB103B05DF804EB1847FFF727
:106E4C00E5FF03B05DF804FB002300931A466FF0D6
:106E5C007701FEF78BFAF4E754E7032038B5124CB0
:106E6C001248134D0021FEF723FB2368AB42114B54
:106E7C000CBF012200221A7002D0FFF7BBFF256065
:106E8C00FEF79EF8044601F0F1F90B4B13B12046C6
:106E9C00AFF3008000210848FEF7D2FABDE8384075
:106EAC0006480021FEF758BA00F40320A96D0D0026
:106EBC001E1C279A50E7032000000000316E0D00C5
:106ECC00704710B51821044601F06BF8204610BD30
:106EDC00F0B5037D062B8DB00E4600F104074FF084
:106EEC00000412D000F1080515F8011D0A223046E5
:106EFC00FEF721FFAF42044419D0002CF4D02E2110
:106F0C003046FEF709FF0444EEE72F236A46394664
:106F1C000A208DF80040FEF7C7F8684601F0F3F937
:106F2C0033680246DB68694630469847044620467B
:106F3C000DB0F0BD10B5054B0446112240F8043BD2
:106F4C00002101F08BF9204610BD00BFE0870D0039
:106F5C000346074A10B543F8042B01F1100251F80F
:106F6C00044B43F8044B9142F9D10A781A7010BDC6
:106F7C00E0870D00037D042B04D14068003818BF56
:106F8C0001207047062B07D143683BB983682BB9A6
:106F9C00C3681BB90069F1E70020704701207047F6
:106FAC0010B59DF8084044EA032343EA024242EA42
:106FBC00016104234160037510BD13B5CB780093B8
:106FCC008B784A780978FFF7EBFF02B010BD000010
:106FDC0010B5034B03600446FFF7EFFF204610BDCE
:106FEC00E0870D0041747047704708B50021007CA4
:106FFC00FEF762F940EAE07008BD08B50121007C9B
:10700C00FEF75AF940EAE07008BD08B5007CFEF7BF
:10701C004BF920EAE07008BD08B5007CFEF73CF99E
:10702C0020EAE07008BD13B50446007C0191FEF720
:10703C003BF90028019901DC607C20B1207CFEF733
:10704C0043F920EAE07002B010BD007CFEF744B9B1
:10705C0010B51421044600F0A4FF204610BD00001A
:10706C0010B54FF47A73044608460021C4E90113A5
:10707C00044B23600123207463741146FEF7F4F86B
:10708C00204610BDF4870D00007C0022FEF7F4B8FA
:10709C00007CFEF7F9B810B514220446002101F06B
:1070AC00DDF8204610BD000010B5104C88B003A8C8
:1070BC00FFF7F1FF2178BFF35B8F11F0010111D1C4
:1070CC0020460191FCF7F2FF019958B103AA084838
:1070DC00FFF7C6FF2046FCF7EEFF064A06490448B8
:1070EC0000F05AFF024808B010BD00BF58E703205B
:1070FC005CE7032024E40320F56F0D0000224068B8
:10710C001146FEF755B9002240681146FEF770B9DA
:10711C00002240681146FEF77BB940680022FEF75A
:10712C006FB94068002281F00101FEF759B90023C4
:10713C0040681A461946FEF74BB9002340681A46B8
:10714C001946FEF73DB9002240681146FEF720B9FA
:10715C00406800220221FEF723B9002340681A463A
:10716C00FEF70EB9084B10B528242246184600210C
:10717C0001F074F8054B04804FF0FF32426004229A
:10718C005A60034A1A6010BD78E7032070E70320A9
:10719C0024880D0070474174704708B5007CFDF7DA
:1071AC00DBFF20EAE07008BD08B5007CFDF7ACFF02
:1071BC0020EAE07008BD08B5007CFDF7B5FF40EA99
:1071CC00E07008BD08B5007CFDF7A6FF40EAE07052
:1071DC0008BD007CFDF7B0BF37B5457C04462DB12A
:1071EC00207C03B0BDE83040FDF786BF007C0191E8
:1071FC00FDF7B2FF00280199F2DC284603B030BD40
:10720C0010B51421044600F0CCFE204610BD000041
:10721C0010B54FF0000C0446084611464FF47A7234
:10722C00C4E901C2044A22600122207462741A4625
:10723C00FDF752FF204610BD60880D00007C002336
:10724C00FDF792BF0022FFF7F9BF007CFDF74CBFA2
:10725C00F7B51B4C26684EB98420FCF714FF054685
:10726C0018B18422314600F0F9FF2560154D2F68C6
:10727C004FB98420FCF707FF064618B18422394623
:10728C0000F0ECFF2E60104E3178BFF35B8F11F0E5
:10729C00010112D130460191FCF708FF019960B150
:1072AC0022682B680948FFF7B3FF3046FCF703FF51
:1072BC00074A0849054800F06FFE044803B0F0BDCA
:1072CC00A4E70320A8E70320A0E70320ACE70320F2
:1072DC0024E40320A1710D007047F8B5064615464D
:1072EC000C468F18BC4206D0336814F8011B9B68FF
:1072FC0030469847F6E72846F8BD007C0022FDF79B
:10730C003BBF007C0021FDF73FBF007C0021FDF757
:10731C0043BF007C0021FDF747BF007C0021FDF737
:10732C004BBF10B51421044600F03BFE204610BDA7
:10733C0010B54FF47A73044608460021C4E90113D2
:10734C00034B236020741146FDF746FF204610BD09
:10735C0090880D0013B503688DF80710DC6B0122C3
:10736C004FF0FF330DF10701A04702B010BD10B470
:10737C000368DC6B4FF0FF33A4465DF8044B6047A9
:10738C0013B5134602688DF80710D46B0DF1070185
:10739C000122A04702B010BD704738B543691A6886
:1073AC00002A054610DAB3F88620B3F884309A42E6
:1073BC000AD103681B699847044628B92B682846EC
:1073CC00DB6A9847204638BD0120FCE74369186802
:1073DC00C043C00F70477047064B994210B500F17F
:1073EC000C0405D0084600F0E3FD002808BF00247B
:1073FC00204610BDCC860D0010B5AC21044600F023
:10740C00D0FD204610BDFCF742BE2DE9F0414FF0F7
:10741C00000886B01D46C0F8048004460E46174688
:10742C004146102202A800F019FF6B1C09D04FF442
:10743C007A70B5FBF0F3CDE9023800FB13535843D7
:10744C000490606910230093006802AB41F20502BE
:10745C0040F6FF71FDF7C8FE002807DAFEF720F8AA
:10746C0003686360002006B0BDE8F081606900230A
:10747C0000683A463146FDF7D7FE031EEEDB184690
:10748C00F1E7000038B584690A4B036005467CB10E
:10749C006368013B63605BB9236820469B6898472F
:1074AC00A368013BA3601BB923682046DB6898479F
:1074BC00284638BDEC880D0010B50446FFF7E2FFF6
:1074CC0020461C2100F06DFD204610BD70B54D69A5
:1074DC00054B04468C3544F8043B06460FCD0FC4CF
:1074EC002B682370304670BDE0870D0010B54369E2
:1074FC00B3F88620B3F884309A42044605D0636909
:10750C00B3F884201344187910BD03681B6998479D
:10751C000028F4D14FF0FF30F6E710B54369B3F80B
:10752C008620B3F884309A42044608D06369B3F8D5
:10753C008420511CA3F884101344187910BD0368DF
:10754C001B6998470028F1D14FF0FF30F6E7F8B5EA
:10755C0043691746B3F88620B3F884309A4205463F
:10756C000E4616D06969B1F88430B1F88640E41A39
:10757C00BC4228BF3C46043322461944304600F036
:10758C0045FE6A69B2F884302344A2F88430204660
:10759C00F8BD03681B6998470028E3D14FF0FF340E
:1075AC00F5E700002DE9F0439846036893B00D46CB
:1075BC000024DB6A06461746984728466B46224647
:1075CC0021460094FDF7D4FC0546002863D1009BAE
:1075DC00002B4BD05B69002B48D006A8FFF7AAFC08
:1075EC00009B5C696378022B04D1211D06A8FFF770
:1075FC00E4FC26E00A2B24D11122294601A800F034
:10760C002DFEA368002B38D004F108030DF1040CF7
:10761C00183418685968624603C20833A34294466A
:10762C00F7D1062301A90CA88DF81430FFF790FCB4
:10763C000DF1340CBCE80F0007AC0FC4DCF80030C3
:10764C00237006A8FFF796FC80B1336807ADD3F81A
:10765C002090124B0C930FCD0DAC0FC42B682370E4
:10766C003A4643460CA93046C84705460098FDF7F4
:10767C0077FC284613B0BDE8F083E368002BC3D138
:10768C004FF6FF70D4F81090FDF716FD8145BBD175
:10769C0004F11401AAE72546E8E700BFE0870D00D6
:1076AC0042690023A2F884304269A2F88630704700
:1076BC002DE9F0411F4603680C46DB6A8AB005468B
:1076CC0016469847237DD5F81480042B0CBF022056
:1076DC000A2006220121FDF7AFFDC8F800006B69F6
:1076EC001B68002B08DA2B682846DB6A00249847B5
:1076FC0020460AB0BDE8F0812846FFF7D1FFB7B1AC
:10770C00002303A9F8B20393ADF81030FDF750FC39
:10771C000028E8D1686906230093006803AB41F2A6
:10772C000B0240F6FF71FDF75FFD0028DBD11C2238
:10773C00002103A800F092FD237D042B1DD14FF4F2
:10774C0007733046ADF80C30FDF7BEFCADF80E00FB
:10775C006068FDF7B1FC04906B691C22186803A9E2
:10776C00FDF752FD0028BED104340FCC6D698C3569
:10777C000FC523682B700124BAE740F61C23304652
:10778C00ADF80C30FDF7A0FC05AEADF80E00231DD6
:10779C0004F1140718685968324603C20833BB4217
:1077AC001646F7D1D8E7000030B54269B2F88630FA
:1077BC008BB004462BB1B2F884209A4201D1FFF76A
:1077CC006FFF61690868002818DBB1F886507F2DBF
:1077DC0014D804310823C5F180022944FDF71CFD9F
:1077EC00002813DD6369B3F886200AB9A3F8842056
:1077FC006369B3F886201044A3F886006369B3F874
:10780C008600B3F88430C01A0BB030BDFDF748FECB
:10781C0003680B2BF2D0FDF743FE03680B2BEDD066
:10782C0020230025CDE90235FDF73AFE03680193CC
:10783C00084B0949009302AA2B463220FDF75CFD48
:10784C0063691868FDF7D8FC63694FF0FF321A6062
:10785C00D4E700BFB7880D00B0880D0010B54369A0
:10786C0004461868002801DBFDF7C6FC63694FF07D
:10787C00FF321A606069112200218C3000F0EEFC9E
:10788C002046BDE81040FFF70BBF10B5002304469F
:10789C000160C0F884308830FFF74CFB204610BDE7
:1078AC0073B500234FF47A72C0E901320E4A0361BA
:1078BC00026043610446AC200191FCF7E4FB051E19
:1078CC0005F10C0608D00123C5E90133074B0199DA
:1078DC002B603046FFF7D9FF2046C4E90565FFF75A
:1078EC00DFFE02B070BD00BFEC880D00D0880D002B
:1078FC0010B54FF0FF310446FFF7D2FF204610BD04
:10790C0010B504460068002801DBFDF775FC204625
:10791C0010BD0C30FFF7F4BF002340681A46FDF78A
:10792C002FBD406800220221FDF73ABD00224068BD
:10793C001146FDF72DBD002240681146FDF738BDFC
:10794C00002340681A461946FDF73ABD00234068EB
:10795C001A461946FDF73CBD40680021FDF760BD95
:10796C0040680021FDF764BD4068002281F00101F0
:10797C00FDF736BD40680022FDF742BD002240688D
:10798C001146FDF745BD002240681146FDF730BD9C
:10799C002DE9F043002495B016460D460746FFF737
:1079AC00C9FA214618220EA8009400F057FC402377
:1079BC00CDE90C3421466B460CAA3046FDF7D8FABB
:1079CC000446002846D1024601216868FDF7F0FC08
:1079DC000221804622466868FDF7EAFC009E81463B
:1079EC002146002E36D0002934D17368022B03D0E7
:1079FC000A2B0BD0F669F4E7B8F1000F04D07169CB
:107A0C0038460431FFF7D9FA4146F3E7B9F1000FD4
:107A1C0001D14946EEE77469102201A800F01EFC62
:107A2C0006238DF8143001AD04F1080318341868DE
:107A3C0059682A4603C20833A3421546F7D101A957
:107A4C0006A807ADFFF784FA0FCD3C1D0FC42B68B9
:107A5C002370DEE70098FDF783FA384615B0BDE8D1
:107A6C00F0830000024B034A1A6000225A607047F0
:107A7C00C0E7032038890D0000F11003012213F830
:107A8C00101C0129184608D153F8041C02EB4102C2
:107A9C00013A03F11003F2D17047022904BF53F8E5
:107AAC00041C5218F4E70EB4F0B588B000AF07F11F
:107ABC003405102155F8042B7A6004462B467818AF
:107ACC00FD60FDF7E5FC0F287A681AD900F1080370
:107ADC0023F007036E46ADEB030D411C2B466846A5
:107AEC00FD60FDF7D5FC021E04DD236869469B682A
:107AFC0020469847B5462037BD46BDE8F04003B058
:107B0C0070470028F7D0236802469B6807F11001E4
:107B1C0020469847EFE710B5036804469B689847E2
:107B2C00A368013BA3602BB923682046DB68BDE842
:107B3C001040184710BD07B503688DF807109B68F7
:107B4C0001220DF10701984703B05DF804FB38B52D
:107B5C000B6803604D6843689D4204460CD015B118
:107B6C006B6801336B60606828B14368013B43600C
:107B7C000BB9FFF7D0FF6560204638BD0B461146A8
:107B8C00002210B5C0E90022044683600BB92046E0
:107B9C0010BDFFF7DCFFFAE78368EBB11A78032A14
:107BAC001AD8DFE802F00417021B052070470268A0
:107BBC005B685268D05C2D2812D0A0F13003092BE1
:107BCC000ED974280ED066280CD0A0F16E03584242
:107BDC0058417047062070470020704704207047BA
:107BEC00032070470220704710B50446FFF7D4FFFE
:107BFC0002280ED0C31EDBB2012B14D82268A36856
:107C0C0050685B68BDE810400A220021184400F05F
:107C1C0023BC2268A36852685B68D05CA0F1740333
:107C2C005842584110BD0020FCE7000038B5002335
:107C3C00C0E9003304460E48C4E90203A9B10B782D
:107C4C00032B06D08BB9136858684B68C35C6E2B3A
:107C5C0007D013684D6858688B6828445B1BA0607C
:107C6C00E36011462046FFF772FF204638BD00BF87
:107C7C002E870D0038B500250B46C0E90055C0E92C
:107C8C000255C0E90455044611464BB11A78012A35
:107C9C0006D103F11002DB6882604361FFF757FFE6
:107CAC00204638BD10B54369044663B18068E06076
:107CBC00013B1030A0602061636113B1FFF7DCFE63
:107CCC00A060012000E0184610BD10B57D210446CF
:107CDC00FFF731FF01232371204610BD08B503794E
:107CEC00012B02D0022B04D008BD2C21FFF723FF5F
:107CFC00FAE73A21FAE710B50446FFF7EFFF204602
:107D0C007B21FFF718FF00232371204610BD0000D4
:107D1C0013B504460191FFF7E1FF2368019ADB6874
:107D2C0003492046984701232046237102B010BD19
:107D3C00C4880D0013B504460191FFF7CFFF2368EB
:107D4C00019ADB680349204698470123204623719A
:107D5C0002B010BD6C890D002DE9F0410D4617469F
:107D6C002221DFF8A08004462F44FFF7E4FE2946C9
:107D7C00BD422A4638D015F8016B222E03D05C2E5A
:107D8C0001D01F2EF4D82368521A9B6820469847BE
:107D9C005C212046FFF7CFFE0D2E0AD8072E1CD9EA
:107DAC00A6F10803052B18D8DFE803F00D0F111707
:107DBC001315222E01D05C2E0FD131462046FFF731
:107DCC00BAFE2946D4E76221F8E77421F6E76E2162
:107DDC00F4E76621F2E77221F0E723683246DB68AC
:107DEC00414620469847ECE78D4204D023686A1A36
:107DFC009B682046984722212046FFF79CFEBDE851
:107E0C00F08100BF6F890D0013B50446CDE9002148
:107E1C00FFF764FF2046DDE90021FFF79DFF0223F9
:107E2C002046237102B010BD13B50446CDE90021E4
:107E3C00FFF754FF2046DDE90021FFF78DFF0123FA
:107E4C002046237102B010BD232813B502D900209F
:107E5C0002B010BDA0F10B03022B1AD8174C2178DD
:107E6C00BFF35B8F11F001010BD120460191FCF7A0
:107E7C001DF9019928B11248FDF760FB2046FCF76B
:107E8C001AF90F4B1878FDF7E7F90028DFD101201C
:107E9C00DEE7012809D800F057F80021007CFDF737
:107EAC0093F980F00100C0B2D2E709380128EED86E
:107EBC00FFF7CEF9007CFDF747F9F2E7C8E703209E
:107ECC00CCE70320232838B504460D460AD8FF29F1
:107EDC0008D0FFF7B9FF28B129462046BDE8384045
:107EEC00FDF74EB838BD38B504460D46FDF750F8D1
:107EFC00FF2810D0062804D84D2323FA00F0C3071E
:107F0C0009D42046FFF7A0FF28B129462046BDE83A
:107F1C003840FDF745B838BD38B5002320254380DF
:107F2C00142304460380856005610649284600F049
:107F3C003CF804496060284600F037F8E0602046C1
:107F4C0038BD00BF75890D0030B50F4D2978BFF3D2
:107F5C005B8F11F0010487B013D12846FCF7A6F80B
:107F6C0078B101A8FFF7D8FF01AA21460748FFF70F
:107F7C00DFF92846FCF79FF8054A0649034800F04C
:107F8C000BF8024807B030BDD8E70320DCE703202C
:107F9C0024E40320E5720D000B460146184600F060
:107FAC0019B9FCF774B8FCF76EB8FCF76EB80000A2
:107FBC00014900F0F9B800BF90890D007FB500248D
:107FCC001023CDE90234036800949E698DF80440B7
:107FDC0015466B461268B0479DF8043003F0060353
:107FEC00062B03BF009B2B600120204604B070BD04
:107FFC000098904214BF01200620704710B5034B27
:10800C000360044600F0CDF8204610BDD0890D0069
:10801C0010B50446FFF7F2FF20460821FFF7C1FF19
:10802C00204610BD2DE9F0411F46DDE90834DDF88E
:10803C00188098450646154607D1079900F0B4F804
:10804C0018B165710020BDE8F0813946304600F06A
:10805C00ABF80028F6D00123C4F800802571A37179
:10806C00F0E738B515461C4600F09EF820B1082301
:10807C00E36006232560237138BD73B505460C46B5
:10808C0001921E4600F090F850B9032E08D82368D0
:10809C00019A5B692946204602B0BDE8704018473A
:1080AC0002B070BD10B5034B03600446FFF7A6FF8A
:1080BC00204610BD308A0D0010B50446FFF7F2FFC4
:1080CC0020460C21FFF76DFF204610BDF7B5089F29
:1080DC00974205460E4614460AD0A86802680897CF
:1080EC00156A31462246AC4603B0BDE8F040604705
:1080FC001946019300F058F8019B0028EDD006209A
:10810C0003B0F0BD2DE9F14F0D461946DDE90A4BE0
:10811C00DDE90CA681461746984600F045F890B16B
:10812C00002D3460377109DB61198A450CBF0621BB
:10813C000121B171002001B0BDE8F08F0235F9D1F9
:10814C000123B371F6E7544506D15946484600F071
:10815C002BF808B17771EDE7D9F808000368CDE981
:10816C000CA6CDE90A4BDC693A4643462946A4469F
:10817C0001B0BDE8F04F60472DE9F04107460C46D1
:10818C0015461E46FFF76DFF48B9B86803689F692E
:10819C002A4633462146BC46BDE8F0416047BDE85F
:1081AC00F081704700207047814208B50ED04068BE
:1081BC0003782A2B0CD049680B782A2B08BF013185
:1081CC0000F08FF8B0FA80F0400908BD0120FCE700
:1081DC000020FAE710B5054C13462CB10A460146AF
:1081EC000220AFF3008010BD2046FCE70000000029
:1081FC0030B501390024A24201D1002005E0035D15
:10820C0001340D5DAB42F6D0581B30BD0A4491428F
:10821C0000F1FF3300D1704710B511F8014B03F892
:10822C00014F9142F9D110BD884210B501EB020407
:10823C0002D98442234607D8431EA14208D011F824
:10824C00012B03F8012FF8E7024401468A4200D1C2
:10825C0010BD13F8014D02F8014DF7E70244034637
:10826C00934200D1704703F8011BF9E738B50D4B69
:10827C001D68AB6B04467BB91820FDF7E9F80A4A78
:10828C000A4BA863C0E90023094B83600B2383814D
:10829C0001220023C0E90423AB6B00221C615A614C
:1082AC0038BD00BFC0E303200E33CDAB34126DE6F6
:1082BC00ECDE0500C9B2034610F8012B1AB18A4254
:1082CC00F9D118467047002918BF0023F9E710B5FB
:1082DC000446FFF7EFFF18B9204600F014F82044CD
:1082EC0010BD10F8012B11F8013B012A28BF9A424E
:1082FC00F7D0D01A7047034611F8012B03F8012B65
:10830C00002AF9D17047034613F8012B002AFBD140
:10831C00181A0138704710B56AB10139841810F871
:10832C00013B11F8012F934203D1A04201D0002B45
:10833C00F5D1981A10BD1046FCE738B503460C462B
:10834C0069B9BDE83840FFF7B5BF431C0546214667
:10835C001846FFF7AFFF0028F7D1284638BD002597
:10836C00F5E700002DE9F0473A4E86468C4660460C
:10837C001CF8014BA55D15F00805F8D12D2C33D157
:10838C009CF800404FF0010800F1020C002B5CD06F
:10839C00102B0CD1302C0AD19CF8000000F0DF001F
:1083AC0058284DD19CF8014010230CF1020C08F117
:1083BC000047013F0026B7FBF3F9304603FB197A5F
:1083CC00A4F13005092D18D82C46A34224DD751CC8
:1083DC0007D081451DD301D1A2451ADB00FB034018
:1083EC0001261CF8014BEBE72B2C08BF9CF8004036
:1083FC00A84608BF00F1020CC8E7A4F14105192DED
:10840C0001D8373CE1E7A4F16105192D04D8573C9C
:10841C00DBE74FF0FF36E4E7731C06D12223CEF8DE
:10842C000030384642B9BDE8F087B8F1000F00D0F3
:10843C004042002AF7D00EB10CF1FF311160F2E787
:10844C003024002BB3D10823B1E7302CA4D00A235D
:10845C00ADE700BF6A8A0D0013460A460146024882
:10846C000068FFF77FBF00BFC0E303201D400D0075
:10847C0059400D0081400D0085400D0000000000AA
:10848C0053656E736F724E6F6465240073656E7303
:10849C006F722D6E6F646500617072615F626F72D6
:1084AC006F6E5F31004D51545420436F6E6E656397
:1084BC00746564004D51545420436F756C646E2781
:1084CC007420636F6E6E65637400537461727469AB
:1084DC006E6700436F6E6E656374696E6720746FB0
:1084EC00206D7174742073657276657200436F6EC3
:1084FC006E656374656420746F206D717474207381
:10850C006572766572004D616B696E67207375726A
:10851C00652063656C6C75617220697320636F6E86
:10852C006E6563746564006D7174745F7075626CF4
:10853C006973682063616C6C65642E005075626CA5
:10854C00697368696E6720746F7069633A2025736C
:10855C00096D73673A257300256300466F756E6469
:10856C002073657269616C207465726D696E6174DB
:10857C006F7200617270612F6D73672F256400003C
:10858C0000000000000000000000000000000000DF
:10859C00A5400D00C9400D000000000000000000C7
:1085AC0031410D0065410D003D6A0D00CB400D00C1
:1085BC0073656E736F722D6E6F64652E6861746176
:1085CC0073616B612E636F6D0000044D5154540444
:1085DC0000064D5149736470030000000000000058
:1085EC00000000002B550D0021550D0017550D00F6
:1085FC000D550D0001550D00F5540D0065790D005C
:10860C006D790D00E9540D00E1540D00D7540D00A7
:10861C00CD540D009D790D00776972696E672E62DD
:10862C006C6500537461727420646973636F766552
:10863C0072696E672073657276696365732E004686
:10864C0061696C656420746F20617070656E642064
:10865C00706565722043656E7472616C206465761A
:10866C006963652E00436F6E6E656374656420628A
:10867C00792043656E7472616C20646576696365FC
:10868C002E00446973636F6E6E656374656420625B
:10869C00792072656D6F7465206465766963652EEB
:1086AC000000000000000000000000001F570D003B
:1086BC0041570D0093590D004F570D0021570D00D8
:1086CC0000000000000000006261756400536572D8
:1086DC0069616C0053657269616C31004A534F4E8D
:1086EC0053747265616D4C6F6748616E646C657232
:1086FC000061707000253031307520005D20002C39
:10870C00200028293A2000205B00636F6465203D1F
:10871C00200025690064657461696C73203D20003C
:10872C000D0A0066006C6E00666E00636F64650077
:10873C0064657461696C00000000000000000000BA
:10874C00FB5D0D00215E0D00E15D0D00B37A0D00A7
:10875C00000000000000000065620D007D620D004D
:10876C003D6A0D00CB400D00000000000000000031
:10877C0091620D00A5620D00E16B0D00E95D0D002D
:10878C000000000000000000F95D0D002F5E0D00E0
:10879C0079690D00EB5D0D00000000000000000089
:1087AC00F75D0D003D5E0D00AD610D00595E0D00D5
:1087BC0025592D256D2D25645425483A254D3A25EE
:1087CC0053257A0061736374696D650000000000C5
:1087DC0000000000DD6E0D00CD6E0D00CF6E0D00A3
:1087EC000000000000000000F56F0D005D700D0032
:1087FC0033700D00D55C0D0025700D00F76F0D006A
:10880C0007700D0057700D0017700D00F16F0D0003
:10881C00000000000000000067710D005D710D008C
:10882C0053710D0009710D0047710D003B710D0066
:10883C0065790D006D790D002F710D0027710D00FC
:10884C001D710D0013710D009D790D0000000000CD
:10885C0000000000A1710D000D720D00E5710D00FE
:10886C00D55C0D00B5710D00D1710D00C3710D00FB
:10887C00DF710D00A3710D00A7710D000000000049
:10888C0000000000E5720D002F730D0007730D0042
:10889C00E7720D000F730D0017730D001F730D00A1
:1088AC0027730D00776972696E67007265637620B5
:1088BC006572726F72203D2025640000000000007C
:1088CC0000000000E3730D0005740D001F790D000E
:1088DC0013740D00E5730D00000000000000000093
:1088EC0091740D00C5740D0061730D007B730D0048
:1088FC00B5770D0027750D00F9740D00A5730D00EB
:10890C00BD760D00B1750D005B750D0069780D001D
:10891C00A7730D00D9730D008D730D0017740D0026
:10892C00D9740D00000000000000000025790D0036
:10893C002F790D0039790D0043790D004D790D001B
:10894C0059790D0065790D006D790D0075790D0063
:10895C0081790D0089790D0093790D009D790D00B9
:10896C0025750075253034780000537431395F5308
:10897C00705F6D616B655F7368617265645F746174
:10898C0067000000D0890D0076890D00308A0D003B
:10899C00A4890D00548A0D004E31305F5F637878E6
:1089AC00616269763131375F5F636C6173735F74D9
:1089BC007970655F696E666F45000000000000000D
:1089CC0098890D0009800D001D800D00B1810D00EE
:1089DC00B1810D0087800D00C97F0D006F800D00E7
:1089EC0031800D00FD7F0D00308A0D00008A0D00D6
:1089FC0098890D004E31305F5F63787861626976DB
:108A0C003132305F5F73695F636C6173735F74796C
:108A1C0070655F696E666F45000000000000000025
:108A2C00F4890D00B1800D00C5800D00B1810D00E1
:108A3C00B1810D0087800D00C97F0D0085810D006F
:108A4C0011810D00D9800D00D0890D005C8A0D00BC
:108A5C00537439747970655F696E666F00002020FD
:108A6C0020202020202020282828282820202020D2
:108A7C002020202020202020202020202020881092
:108A8C0010101010101010101010101010100404F2
:108A9C0004040404040404041010101010101041F9
:108AAC00414141414101010101010101010101016A
:108ABC0001010101010101010110101010101042FF
:108ACC00424242424202020202020202020202023A
:108ADC000202020202020202021010101020000018
:108AEC00000000000000000000000000000000007A
:108AFC00000000000000000000000000000000006A
:108B0C000000000000000000000000000000000059
:108B1C000000000000000000000000000000000049
:108B2C000000000000000000000000000000000039
:108B3C000000000000000000000000000000000029
:108B4C000000000000000000000000000000000019
:108B5C000000000000000000000000000000000009
:108B6C00A1450D0035550D007D550D00AD5C0D007A
:108B7C002D6A0D00556D0D008D6D0D0071710D0080
:048B8C00717A0D00ED
:048B900000000000E1
:108B9400BC850D00070000000100000094870D0053
:108BA400AC870D00D0870D00C4E303200000000053
:108BB40000000000000000000000000000000000B1
:108BC40000000000000000000000000000000000A1
:108BD4000000000000000000000000000000000091
:108BE4000000000000000000000000000000000081
:108BF4000000000000000000000000000000000071
:0C8C040000000000000000000000000064
:108C1000FFFFFFFF00000102030405060708090A21
:108C20000B0C0D0E0F101112131415161718191A1C
:088C30001B1C1D1E1F20280063
:048C38007856341224
:040000052003E3B041
:00000001FF
