:02000002D0002C
:1040000000400D00588D0D00000006000D00050158
:084010000401BD0B00000000DB
:04401800A0850D0072
:10401C0009480A49884208B505D0094A824202D0AB
:10402C00121A04F087F90748074A0021121A04F003
:10403C00A9F9014808BD00BFA8E30320B48C0D000A
:10404C0024E4032024E40320F0E7032070B5074E9A
:10405C00074C02F097FFA41BA4080025A54200D131
:10406C0070BD56F8043B98470135F7E7888C0D0076
:10407C00AC8C0D0000F0B0B808B500F08FF9BDE8BD
:10408C00084002F041BF01F0E3B901F0E1B901F0E1
:10409C00E7B901F0E5B9000008B5034A00210C208E
:1040AC0001F022F9FEE700BFDD4F0D000078B0FAF9
:1040BC0080F0400970470123037070477047006A15
:1040CC000368DB681847000010B50F4C01212088ED
:1040DC0003F09BFFFA2002F0DDFE2088002103F0A4
:1040EC0094FFFA2002F0D6FE2088012103F08DFF08
:1040FC00FA2002F0CFFE2088002103F086FFBDE8F5
:10410C001040FA2002F0C6BEACE3032038B50446DA
:10411C00006928B185680C2103F0D5FF2846F8E723
:10412C00204638BD0A4B10B50446036002F046F831
:10413C00214602F036FA03F045F803F037F8204632
:10414C00044B40F8043B02F019F9204610BD00BFA7
:10415C00D0860D00B8860D0010B50446FFF7E2FFBF
:10416C002046242103F0AFFF204610BD0EB410B53D
:10417C008DB00FAA016852F8044B03920023202043
:10418C00CDE90403CDE900421E2004AA01F0BCF8DD
:10419C000DB0BDE8104003B07047000008B5074AE9
:1041AC00074B0849084800F0B3FC20B10749084800
:1041BC00FFF7DCFF08BD0749F9E700BFC6850D0016
:1041CC00B4850D00CC850D0028E40320D9850D00A5
:1041DC0010E70320E8850D0070B501F0D7FB01F066
:1041EC0096FC404B404C1888012103F0FDFE03F077
:1041FC00BDF84FF4614103F0B3F8237D0BB10223FA
:10420C00237203F0B3F8237D06462BB32368DB68D7
:10421C0073B19A88062A01D09B68F9E7197B327C26
:10422C00914219D09B681BB19A88062AFAD1F5E7FE
:10423C002E49102003F049FF054600284FD01022CC
:10424C00002104F09FF82A4B2B600623AB802369D6
:10425C00AB60337C2B732561237DABB12368DB68AA
:10426C002BB39A880E2A06D09B68F9E79B68F3B1AA
:10427C009A880E2AFAD11A7B042AF7D1DA89012AF4
:10428C0002D042F00102DA811A491B48FFF76EFF97
:10429C0019481A49FFF76AFFFFF780FF184800F02A
:1042AC0046FB18B117491448FFF760FF70BD0F4962
:1042BC00142003F00AFF054678B11422002104F003
:1042CC0061F80B4B2B600E23AB802369AB6004238E
:1042DC002B730123EB812561D6E72075D4E720757C
:1042EC00BAE700BFACE30320B4E60320918A0D00CB
:1042FC0010000300FE850D0010E7032007860D005B
:10430C0028E4032021860D0038B50F490F48104CC6
:10431C00FFF72CFF254600226068114601F048F893
:10432C00034678B902460146606801F029F800227C
:10433C006868114601F02CF80028ECD0012002F03E
:10434C00A9FDF4E738BD00BF3A860D0010E7032045
:10435C0070E7032038B504460D460C480C49FFF7AE
:10436C0005FFFFF7D1FF0B4800F0E1FA08B9FFF7A2
:10437C0015FF2246084905482B46FFF7F7FE2A464B
:10438C0021460448BDE8384000F04DBC10E703203E
:10439C005B860D0028E4032070860D002DE9F047A4
:1043AC00364E374F374C02F0E1FF03681B699847D4
:1043BC00002854DD02F0DAFF0368334D5B6998473F
:1043CC003946C2B230702046FFF7D0FE2F4B327800
:1043DC00197839B12E490A7000221A702B78002BEB
:1043EC00E1D016E03B2A07D101222A491A70204657
:1043FC002A70FFF7BBFEF1E7274928480B68B3F595
:10440C00FF7F03F1010C26DB0124C2542C70C1F890
:10441C0000C0DFF88490DFF88480D9F800302049A0
:10442C002048002408F80340194B1A7801F028F8AA
:10443C001C484146FFF78EFF4FF400722146404660
:10444C0003F0A0FF17481022214603F09BFFC9F888
:10445C0000402C70A6E7C254C1F800C0BEE7124859
:10446C0000F065FA10B1104800F039FC02F07EFF44
:10447C000368BDE8F0471B69184700BFDCE6032062
:10448C00AD860D0010E70320B1E60320B0E3032056
:10449C00B0E603208C860D0088E40320B0E40320F2
:1044AC00A4860D00CCE6032028E4032070B5D0E9E7
:1044BC0000531426044606FB0356AE4204D028468D
:1044CC0001F08BF81435F8E7206800F0C9FF20469E
:1044DC0070BD8842F8B504460D46164616D9904272
:1044EC0015D2A2F11406751AA1F114072C44B74287
:1044FC001CD02CB13146204601F0EBF8337C2374F0
:10450C00304601F06AF8143E143CF0E70ED0B54288
:10451C000CD02CB12946204601F0DBF82B7C2374FF
:10452C00284601F05AF814351434F0E7F8BD2DE99B
:10453C00F0410023C0E9003383604F689F4204467A
:10454C000E4623DD4FF0140808FB07F000F080FF47
:10455C000546D8B1D4E9001208FB0212FFF7B9FFE7
:10456C00206800F07DFF2560A760D6E9007308FB8A
:10457C000378B84508D03946284601F0C4F83B7C8E
:10458C002B7414371435F4E7736863602046BDE868
:10459C00F0810000F0B58FB00024CDE90244049402
:1045AC0002F010FE2E4D064602A905A8FFF7BFFF2C
:1045BC002F4605A908A8FFF7BAFF2A4B47F8043B7A
:1045CC0008A90BA8FFF7B3FF0BAA1E21384602F06F
:1045DC003BF90BA8FFF76AFF08A8FFF767FF224B10
:1045EC002B602E6205A8FFF761FF204B2B6002F0B9
:1045FC00E9FD4FF4165102F0D5FD1D4E01F0DEFD24
:10460C00294602F0B3F802A8FFF750FF32461949C9
:10461C00284603F053FD18481849A0F809400346F2
:10462C00021D43F8092B9C7001230375144B436046
:10463C003246C0E90344047203F040FD114D1249A7
:10464C000094124B096841F23612284600F066F8C5
:10465C000F493246284603F031FD0FB0F0BD00BFC4
:10466C008CE40320B8860D0080880D00D0860D00E8
:10467C0024E4032031410D00B4E6032019410D0060
:10468C001000030028E40320A8E30320D5400D000C
:10469C001D4F0D0091F85C3010B50446016013B14C
:1046AC00886D00F0D1FC204610BD10B5036893F85E
:1046BC005C20044612B1986D00F0CEFC204610BD73
:1046CC00F8B51F469DF8243004460D4616462BB10E
:1046DC00012380F85C30583000F0AEFC089B23635B
:1046EC000023636306B1A66425B1294604F13800A2
:1046FC0001F014F8069B2365079BE069A4F84C7045
:10470C00FF2BB8BFFF23A4F8543008B1FFF7C1FC4E
:10471C00B4F85400FFF7B9FCE061F8BD2DE9FF4196
:10472C0004460025174698460E4603F0EFF80D494F
:10473C00E56104F1380000F09BFF9DF82830A5647A
:10474C00CDE90283FF220F23CDE90032204684F805
:10475C005C503B462A463146FFF7B2FF204604B078
:10476C00BDE8F0814A880D0010B50446204603F0E0
:10477C0029F80028FAD0204602F05DFFC0B210BD27
:10478C002DE9F0470546C4690F46FFF7EDFF207091
:10479C00EB6993F800A04FF001090AF0F00A4FF012
:1047AC0000084C462846FFF7DFFF2646EB69985574
:1047BC0000F07F0313FB09F3984401340306A4B201
:1047CC001FFA88F84FEAC919ECD4631EBAF1300FFE
:1047DC003B7024D12846EF69FFF7C6FF38552846B1
:1047EC00EF69F41CFFF7C0FF0236B6B2A4B2B8559D
:1047FC000226B6B2B1462746C14512D22846FFF76B
:10480C00B3FFB5F85430BB4288BFEB6909F101091D
:10481C0088BFD8550137BFB21FFA89F9ECE70026DB
:10482C00E7E7A8EB0600B0452CBF0646002634444B
:10483C00B5F85400A4B2A0422CBF20460020BDE81D
:10484C00F087F7B58C461E461D4607460023AE463C
:10485C0002A805F07F01BEF17F0F03F101040344B0
:10486C0088BF41F08001BEF17F0F4FEAD515E4B24D
:10487C0003F8041C10D8C4F10403D11802F803C0C7
:10488C00C4F10503134401A80532934206D010F875
:10489C00015B03F8015BF8E72346D8E7721C22445E
:1048AC00384602F0F2FD054600F09AFB621C786275
:1048BC003244A8B2131A5842584103B0F0BD13B594
:1048CC000446014601A8FFF7E5FEE369E0221A70F1
:1048DC00E36900225A70E1690222204602F0D5FDFC
:1048EC00204602F0C9FF00F07BFBC4E9090001A8D7
:1048FC00FFF7DBFE02B010BD0233F0B5044698B2F0
:10490C000023CD5C55B1B4F85460864203F1010725
:10491C0004D9461C15543B46B0B2F2E799B2441A7E
:10492C002244091202F8021C02F8013CF0BD38B511
:10493C00044602F0C0FD002814BF0125002502D159
:10494C00204602F099FF284638BD00002DE9F047BB
:10495C0088B00446DDF840809DF850A08946174683
:10496C001E46FFF7E4FF0546002840F0CB802146A9
:10497C0001A8FFF78FFEA16C002940F08780B4F8E6
:10498C004C20A16B2B46204602F0D4FF002879D096
:10499C00012323849DF85430E269042B40F081807C
:1049AC00594B186899889B79ADF80C108DF80E301E
:1049BC000290C2F805009DF80E30BDF80C10A2F85C
:1049CC000910D3720C23B8F1000F7FD09DF848006A
:1049DC009DF84420400140EAC20040F00600C0B2FD
:1049EC00BAF1000F01D100F0FD001FB1002E6FD104
:1049FC0040F08000E269D054226DE169581C12121B
:104A0C000A549A1CE169206D88540333E2694946C3
:104A1C002046FFF771FF0346B8F1000F0BD0E26997
:104A2C0041462046FFF768FFE2691399034620468A
:104A3C00FFF762FF034667B1E26939462046FFF78C
:104A4C005BFF03462EB1E26931462046FFF754FF67
:104A5C000346053BE2699BB210212046FFF7F1FEAD
:104A6C0000F0BEFAC4E909004FF47A76204602F051
:104A7C00A9FE80BB00F0B4FAA36AC01A236D73437D
:104A8C009842F3D9204602F0F7FE34E002A802F077
:104A9C0029FBB4F84C202B4602A9204602F017FE45
:104AAC0074E71A4B186859681B7A0DF1080CACE8BE
:104ABC0003008CF8003002AB03CBC2F80500C2F83F
:104ACC0009109CF8003053730E237CE7022087E713
:104ADC0040F0C0008EE702A92046FFF751FE0428E3
:104AEC00D0D1E369DE78002ECCD100F079FA012523
:104AFC00A06284F82C6001A8FFF7D7FD284608B007
:104B0C00BDE8F0870025F9E7F3860D00FA860D0065
:104B1C0010B54FF0040C86B00124CDE9044C0024F0
:104B2C00CDE90244CDE90044FFF710FF06B010BDFB
:104B3C002DE9F74FDDF83C809DF834509DF8389006
:104B4C0004468B4616461F46FFF7F1FE82460028A8
:104B5C0051D0214601A8FFF79DFDB4F85420E0691F
:104B6C00002103F00FFC0523E26959462046FFF7AC
:104B7C00C3FE6B1E012B15D8218CE369013189B260
:104B8C00218409121954421CE369218C92B202301F
:104B9C00995480B2B8F1000F04D0238C5A1C228493
:104BAC00A8F8003000210B188F42E2699BB20AD999
:104BBC00B4F854C09C4506D916F801C002F803C0DD
:104BCC00013189B2EFE79DF8301000290CBF30217C
:104BDC003121B9F1000F01D041F00801022D0ED1A5
:104BEC0041F00401053B9BB22046FFF72AFE8246AA
:104BFC0001A8FFF75AFD504603B0BDE8F08F012D18
:104C0C0008BF41F00201EDE71FB5089C0394002496
:104C1C0002949DF81C4001949DF818400094FFF7F5
:104C2C0087FF04B010BD30B587B00446104605911F
:104C3C00049203F0FCFB00250346CDE90155DDE9A8
:104C4C00042100952046FFF7DFFF07B030BD73B598
:104C5C0004460E46FFF76BFE0546C8B1214601A877
:104C6C00FFF718FDE36962221A70E36902225A7099
:104C7C00E36932129A70E369DE70E169042220461E
:104C8C0002F003FC051E01A818BF0125FFF70DFD5E
:104C9C00284602B070BD73B504460E46FFF747FEBA
:104CAC000546C8B1214601A8FFF7F4FCE36972225E
:104CBC001A70E36902225A70E36932129A70E3693E
:104CCC00DE70E1690422204602F0DFFB051E01A81C
:104CDC0018BF0125FFF7E9FC284602B070BD2DE98D
:104CEC00F04F2DED028B87B000AF0446FFF71FFE8F
:104CFC008146F8B1214607F11400FFF7CBFC00F018
:104D0C006FF9226D4FF47A735343A26A821A9A4256
:104D1C00064603D8626A821A934221D294F82C3048
:104D2C007BB1204602F0A8FD4FF0000907F11400FA
:104D3C00FFF7BBFC48461C37BD46BDEC028BBDE8FB
:104D4C00F08FE269C0211170E2695370E1690222AF
:104D5C00204602F09AFBC4E90966012384F82C3042
:104D6C00204602F02FFD0028E0D007F11301204669
:104D7C00FFF706FD83460028D8D0E369A6621978B0
:104D8C0001F0F002302A7FD1D4F830A0BAF1000F34
:104D9C00CCD097F813C06A4608EE102A03EB0C022D
:104DAC005578917801EB05218DB205F10802694621
:104DBC00D208A1EBC20295460CF10302FA6003EB98
:104DCC00020E0DEB05026846C7F808D07A60D7E9E9
:104DDC0001218A4206D00A461EF8018B02F8018B8B
:104DEC00BA60F4E70022425593F80080F96808F0A5
:104DFC000608ABEB0C02033AB8F1020FA2EB05026A
:104E0C00294425D113F801E01944023A91F801B074
:104E1C000CF10501294419440BEB0E2BD047E36927
:104E2C0040221A70E3691FFA8BFB83F80180E36957
:104E3C004FEA2B229A70E36983F803B0E1690422EC
:104E4C00204602F022FB666218EE103A9D466DE792
:104E5C00B8F1040F15D113F801E01944023A91F896
:104E6C0001B00CF10501294419440BEB0E2BD04772
:104E7C00E36950221A70E36902221FFA8BFB5A7005
:104E8C00D5E71944D047DFE7502A08D19A78D9786A
:104E9C0001EB022189B22046FFF7D9FE46E7402AF2
:104EAC0012D1626B002A3FF441AFBBF1040F7FF4C7
:104EBC003DAF11F0060F7FF439AF9978D87800EB3D
:104ECC00012080B2904731E7602A08D19A78D978CE
:104EDC0001EB022189B22046FFF7DDFE26E7702A9E
:104EEC00DFD0902A3FF422AFC02A0AD1D0221A7008
:104EFC00E36900225A70E1690222204602F0C5FAE9
:104F0C0014E7D02A04BF002384F82C300EE70000ED
:104F1C0038B50546FFF70BFD10B12846FFF7CFFC5F
:104F2C00E86908B1FFF7B5F805F1380000F055FB5A
:104F3C00AC690A4B2B607CB16368013B63605BB965
:104F4C00236820469B689847A368013BA3601BB964
:104F5C0023682046DB689847284638BD088A0D0030
:104F6C0008B5024B1B689B68019308BD68020300DF
:104F7C0008B5024B1B68DB68019308BD680203008F
:104F8C0008B5024B1B689B68019308BD2C020300FB
:104F9C0008B5024B1B68DB68019308BD2C020300AB
:104FAC0008B5024B1B681B69019308BD2C0203005A
:104FBC0008B5024B1B685B69019308BD6C020300CA
:104FCC0008B5024B1B685B68019308BD180203000F
:104FDC0008B5024B1B68DB68019308BD180203007F
:104FEC0008B5024B1B685B69019308BD18020300EE
:104FFC0008B5024B1B689B68019308BD780203003F
:10500C0008B5024B1B68DB68019308BD78020300EE
:10501C0008B5034B1B68D3F89830019308BD00000A
:10502C007802030008B5034B1B68D3F8F0300193EA
:10503C0008BD00007802030008B5024B1B681B6B0F
:10504C00019308BD4802030008B5024B1B689B6B1B
:10505C00019308BD4802030008B5024B1B681B6C8A
:10506C00019308BD4802030008B5024B1B685B6C3A
:10507C00019308BD4802030008B5024B1B689B6CEA
:10508C00019308BD4802030008B5024B1B68DB6C9A
:10509C00019308BD4802030008B5024B1B685B6D09
:1050AC00019308BD4802030008B5024B1B685B69FD
:1050BC00019308BD6402030008B5024B1B681B6A10
:1050CC00019308BD6402030008B5024B1B689B6A80
:1050DC00019308BD6402030008B5024B1B681B68F2
:1050EC00019308BD3C02030008B5024B1B689B688A
:1050FC00019308BD3C02030008B5024B1B68DB683A
:10510C00019308BD3C02030008B5024B1B681B69E8
:10511C00019308BD3C02030008B5024B1B685B6998
:10512C00019308BD3C02030008B5024B1B689B6948
:10513C00019308BD3C02030008B5024B1B68DB69F8
:10514C00019308BD3C02030008B5024B1B681B6AA7
:10515C00019308BD3C02030008B5024B1B689B6A17
:10516C00019308BD3C02030008B5024B1B68DB6AC7
:10517C00019308BD3C02030008B5024B1B681B6A77
:10518C00019308BD2802030008B5024B1B685B6A3B
:10519C00019308BD2802030008B5024B1B689B6AEB
:1051AC00019308BD2802030008B5024B1B68DB6A9B
:1051BC00019308BD2802030008B5024B1B681B6B4A
:1051CC00019308BD2802030008B5024B1B685B6BFA
:1051DC00019308BD2802030008B5024B1B681B6C29
:1051EC00019308BD2802030008B5024B1B689B699C
:1051FC00019308BD3802030008B5024B1B68DB693C
:10520C00019308BD3802030008B5024B1B681B6AEA
:10521C00019308BD3802030008B5024B1B689B6A5A
:10522C00019308BD3802030008B5024B1B681B6BC9
:10523C00019308BD3802030008B5024B1B689B6B39
:10524C00019308BD3802030008B5024B1B68DB69EB
:10525C00019308BD3002030008B5024B1B681B6AA2
:10526C00019308BD3002030008B5024B1B681B6894
:10527C00019308BD4C02030008B5024B1B685B6828
:10528C00019308BD4C02030008B5024B1B689B68D8
:10529C00019308BD4C02030008B5024B1B681B6947
:1052AC00019308BD4C02030008B5024B1B685B69F7
:1052BC00019308BD4C02030008B5024B1B689B69A7
:1052CC00019308BD4C02030008B5024B1B68DB6957
:1052DC00019308BD4C02030008B5024B1B681B6A06
:1052EC00019308BD4C02030008B5024B1B685B6BB5
:1052FC00019308BD6002030008B5024B1B681B6DCF
:10530C00019308BD6002030008B5024B1B685B6D7E
:10531C00019308BD6002030008B5024B1B68DB6EED
:10532C00019308BD6002030008B5024B1B681B6F9C
:10533C00019308BD6002030008B5024B1B685B6853
:10534C00019308BD2002030008B5024B1B685B6982
:10535C00019308BD2002030008B5034B1B68D3F86A
:10536C008830019308BD00002002030008B5034BF0
:10537C001B68D3F89430019308BD00002002030091
:10538C0008B5024B1B685B68019308BD4002030023
:10539C0008B5024B1B689B68019308BD40020300D3
:1053AC0008B5024B1B68DB68019308BD4002030083
:1053BC0008B5024B1B681B69019308BD4002030032
:1053CC0008B5024B1B685B69019308BD40020300E2
:1053DC0008B5024B1B689B69019308BD4002030092
:1053EC0008B5024B1B68DB69019308BD4002030042
:1053FC0008B5024B1B681B6A019308BD40020300F1
:10540C0008B5024B1B681B6B019308BD40020300DF
:10541C0008B5024B1B685B6B019308BD400203008F
:10542C0008B5024B1B681B6C019308BD40020300BE
:10543C0008B5024B1B685B6C019308BD400203006E
:10544C0008B5024B1B68DB6B019308BD44020300DB
:10545C0008B5024B1B681B68019308BD1C020300B6
:10546C0008B5024B1B685B68019308BD1C02030066
:10547C0008B5024B1B689B68019308BD1C02030016
:10548C0008B5024B1B68DB68019308BD1C020300C6
:10549C0008B5024B1B685B6A019308BD1C02030034
:1054AC0008B5024B1B68DB6A019308BD1C020300A4
:1054BC0008B5024B1B68DB6B019308BD1C02030093
:1054CC0008B5024B1B685B6C019308BD1C02030002
:1054DC00002240681146FFF78BBF0022406811463E
:1054EC00FFF796BF40680022FFF78ABF4068002292
:1054FC0081F00101FFF774BF002340681A4619467A
:10550C00FFF766BF002340681A461946FFF758BFDD
:10551C00002240681146FFF74BBF0022406811463D
:10552C00FFF736BF406800220221FFF739BF002386
:10553C0040681A46FFF724BF024B03225A60024A06
:10554C001A607047E0E603200C870D0010B5044686
:10555C0008462170FFF778FE00236360204610BDDB
:10556C0010B50446006818B1FFF77AFF00232360DA
:10557C0010BD10B50446FFF7F3FF204610BD000028
:10558C0010B5094B094C022200201A60084B206010
:10559C00A080A071A360FFF7CFFE2046054A064904
:1055AC00BDE8104002F08ABDF4E60320E8E60320D3
:1055BC000000FFFF24E403207F550D0070B586B07A
:1055CC00064601AD684601F08DFD0FCD341D0FC4AC
:1055DC002B682370304606B070BD10B504460068C9
:1055EC00FFF73EFF204610BD10B50446006808B119
:1055FC00FFF736FF0023C4E90133236010BD38B533
:10560C0004460D4600680131FFF732FF10B1C4E9C2
:10561C000005012038BD10B50368044623B143686A
:10562C008B4201D3012010BD2046FFF7E8FF002874
:10563C00F9D0A368002BF5D122681370F2E737B5C7
:10564C000D46114601920446FFF7E5FF019A28B971
:10565C002046FFF7C9FF204603B030BDA2602946A3
:10566C00206802F067FE2268A3680021D154F2E79B
:10567C00002313B5C0E9003304468360037341B1C2
:10568C000846019102F0D3FE019902462046FFF72D
:10569C00D6FF204602B010BD38B5054600680C4652
:1056AC0068B16A688B689A4207D3096802F0B7FE42
:1056BC00A368AB600023A36038BDFFF7D1FE23685D
:1056CC002B6063686B60A368AB600023C4E9003394
:1056DC00F1E710B50023C0E900330446836003737F
:1056EC00FFF7DAFF204610BD884210B5044605D0FE
:1056FC000B682BB18A681946FFF7A1FF204610BD35
:10570C00FFF772FFFAE710B500230446C0E9003337
:10571C0083600373FFF7E8FF204610BD13B5044602
:10572C0059B10846019102F082FE019902462046C9
:10573C00FFF785FF204602B010BDFFF755FFF9E7D4
:10574C0070470000064B994210B500F10C0405D0CF
:10575C00084602F0C1FC002808BF0024204610BDFA
:10576C00E8870D0010B53021044602F0ACFC204651
:10577C0010BDFEF78CBC10B5036804469B689847B7
:10578C00A368013BA3602BB923682046DB68BDE806
:10579C001040184710BD10B50446006808B1FFF75B
:1057AC006BFC204610BD000010B5044B0446186875
:1057BC00FFF76AFC0123237010BD00BFFCE6032039
:1057CC0010B5044B04461868FFF766FC00232370E1
:1057DC0010BD00BFFCE6032010B58368044613B16E
:1057EC00032201469847204610BD10B500230446FD
:1057FC000370FFF7D9FF204610BD10B5037804469F
:10580C000BB1FFF7DDFF204610BD82B003460868E0
:10581C0049686A4603C26A4603CA1860184659604A
:10582C0002B0704708B582798B799A4206D106226C
:10583C0002F072FDB0FA80F0400908BD0020FCE7D0
:10584C004FF0FF330360838000207047002108B5C0
:10585C00016041600246FFF7F3FF9171104608BDED
:10586C0010B5D0E9063203EBC2029342184606D0BB
:10587C00046824888C4203F10803F6D110BD002083
:10588C00FCE7000070B50025056006463020FEF7E9
:10589C00FAFB044688B10123C0E90133094B0360CC
:1058AC004FF6FF7383810E30FFF7D0FFC4E9065526
:1058BC00C4E90855C4E90A55A57574600C34346004
:1058CC00304670BDD4870D0037B50D46044601A88F
:1058DC00FFF78BFF2A6852F8023F2360536863601E
:1058EC0001A8FFF78AFF204603B030BD30B505464E
:1058FC0087B00C4601A8FFF778FF2A682368128846
:10590C001B889A420DD1294602A8FFF7DDFF2146DC
:10591C0004A8FFF7D9FF04A902A8FFF783FF0446E8
:10592C0000B9002401A8FFF768FF204607B030BD7E
:10593C0010B504465420FEF7A6FB014660B10023C7
:10594C00C0E90033C0E90233C0E90433C0E90633CF
:10595C000362C362C363C364216019B9094A0A2094
:10596C00FFF7C2FC0020FFF743FB20B1054A0021E2
:10597C000A20FFF7B9FC216803480022FFF752FB0D
:10598C00204610BDDD4F0D00595C0D0010B50B4CC1
:10599C002378BFF35B8FDB070ED42046FEF786FB24
:1059AC0050B10748FFF7C4FF2046FEF784FB054AB9
:1059BC000549034802F082FB014810BDF8E60320BC
:1059CC0000E7032024E40320935A0D0070B5D0E9BE
:1059DC000053044605EB0316AE4204D02846FFF7ED
:1059EC00FCFD1035F8E72068FFF73AFD204670BD46
:1059FC000B68036013B15A6801325A60704710B5D6
:105A0C0051F8043B044640F8043BFFF7F1FF2046F5
:105A1C0010BD10B50446006828B14368013B4360D3
:105A2C000BB9FFF7A8FE204610BD70B5D0E90053A6
:105A3C00044605EBC306AE4204D0281DFFF7E9FF70
:105A4C000835F8E72068FFF70BFD204670BD70B5F0
:105A5C00D0E90053044605EBC306AE4204D0281D22
:105A6C00FFF7D7FF0835F8E72068FFF7F9FC204669
:105A7C0070BD10B504462430FFF7E9FF04F118009F
:105A8C00FFF7D3FF10BDF8B50468064624B304F144
:105A9C004400FFF7A1FE04F13400FFF79DFE04F172
:105AAC002400FFF799FED4E9065305EBC307AF4278
:105ABC0004D0281DFFF7ADFF0835F8E7A069FFF704
:105ACC00CFFC04F10C00FFF7C2FF2046FFF7ADFF3F
:105ADC005421204602F0F7FA3046F8BD826810B522
:105AEC000AB902F0F6FABDE81040C368184770B561
:105AFC00D0E90053044605EBC306AE4204D0281D82
:105B0C00FFF787FF0835F8E70023636070BD13B516
:105B1C0004460020FFF774FA00280ADB01A8FFF7FF
:105B2C0064FE20681830FFF7E2FF01A8FFF765FE5E
:105B3C00002002B010BD8842F8B504460D4616464A
:105B4C0014D9904213D2A2F10806751AA1F10807D4
:105B5C002C44B74218D01CB131462046FFF74FFFFA
:105B6C00301DFFF756FF083E083CF2E70CD0B5425B
:105B7C000AD01CB129462046FFF741FF281DFFF72C
:105B8C0048FF08350834F2E7F8BD2DE9F041D0E9BB
:105B9C0000430546884604EBC307A74203D1002601
:105BAC003046BDE8F08141462046FFF79FFE064691
:105BBC0008B90834F1E7002CF1D0201DFFF729FFBC
:105BCC00D5E9003204F1080103EBC2022046FFF7CD
:105BDC00B2FF6B68013B6B60E2E7F7B504464668C1
:105BEC006846FFF70CFFD4E901739F4212DB0137C3
:105BFC00002F29DDF800FFF72BFC0546F0B1D4E9A6
:105C0C00001201EBC202FFF796FF2068FFF728FC99
:105C1C002560A7602368626803EBC60603EBC2022B
:105C2C00314606F10800FFF786FF1EB16946304683
:105C3C00FFF7E5FE636801336360012501A8FFF7F8
:105C4C00E8FE284603B0F0BD0025DEE72DE9F04163
:105C5C0005468EB003A80C46FFF7C7FD2E68042E30
:105C6C006BD007D8032E28D003A8FFF7C6FD0EB0C3
:105C7C00BDE8F081A6F10C03032BF5D8A9892046C9
:105C8C00FFF7EEFD07460028EED0E36C002BEBD0BF
:105C9C001022002107A802F075FB0D2E06978DF837
:105CAC001C6040F092806B68099306230893236D67
:105CBC0006A904F144009847D6E704A8FFF7E2FDD3
:105CCC00049BAA891A806968049808310230FFF78E
:105CDC009CFD04A906A8FFF792FE06A904F1180082
:105CEC00FFF77BFF054607A8FFF793FE20230693DB
:105CFC008DB93E4B3E49009332202B4606AA0795A0
:105D0C00FFF7FAFA049B29461888FFF781F905A8D2
:105D1C00FFF77FFEA8E7374A009200233449079328
:105D2C0006AA0120FFF7E8FAE36A002BEFD004A9DA
:105D3C0004F12400FFF7D2FEE9E7A9892046FFF71A
:105D4C008FFD064600288FD00568D5E906314FF641
:105D5C00FF722A8003EBC101994203D053F8080B60
:105D6C004280F9E7D5E9037307EBC308B84504D0C3
:105D7C00381DFFF74EFE0837F8E700232B61D5E9F5
:105D8C00067307EBC308B84504D0381DFFF741FE76
:105D9C000837F8E70023EB61AB72E36B23B13146B4
:105DAC0004F13400FFF79AFE00232022CDE90623EC
:105DBC00114A00920E4906AA0120FFF79DFA3146BE
:105DCC0004F11800FFF7E1FE4EE70F2E7FF46FAFE2
:105DDC006B6809932B7A03F00102C3F340038DF82F
:105DEC0029308DF82820082360E700BF67870D0055
:105DFC0040870D008D870D00AA870D0010B5064C4D
:105E0C00002320462360FFF72FF92046034A04495C
:105E1C00BDE8104002F052B9FCE6032024E4032054
:105E2C00A3570D00F8B506460D468F180024BD4249
:105E3C000CD0336815F8011B9B6830469847031E3D
:105E4C0001DB1C44F3E7002C08BF1C462046F8BDC0
:105E5C0013B50446084659B1019102F0E8FA2368DB
:105E6C000199DB680246204602B0BDE81040184795
:105E7C0002B010BD03689B68184738B50D21054664
:105E8C00FFF7F8FF0A2104462846FFF7F3FF2044EA
:105E9C0038BD30B58BB000238DF82430012A98BF63
:105EAC000A2209AC0D46B1FBF2F101FB125303F0CF
:105EBC00FF03092B94BF30333733DBB2AA4204F80B
:105ECC00013DEFD92146FFF7C3FF0BB030BD2DE9E3
:105EDC00F04186B000AF05460E46381D142114461D
:105EEC003B60FFF7D5FA13280ED8391D2846FFF76B
:105EFC00AFFF04461EB12846FFF7BFFF04442046FF
:105F0C001837BD46BDE8F08100F1080323F0070304
:105F1C00E846ADEB030D2246411C3B686846FFF793
:105F2C00B7FA69462846FFF793FF0446C546E1E7F2
:105F3C0080680368DB6818477047084611B10B6826
:105F4C005B681847704770477047704738B5044610
:105F5C000D4600682E2102F04EFA2368C31A2B60FE
:105F6C0023B1037803B1013023682060184638BD93
:105F7C0010B50C21044602F0A6F8204610BD10B551
:105F8C000421044602F09FF8204610BD10B50421F0
:105F9C00044602F098F8204610BD08B502F035FA18
:105FAC00B0FA80F0400908BD10B50C4601F00AF9B2
:105FBC00844210D001F0DAF9844205D101F0D6F90F
:105FCC00BDE8104001F0CFB92CB1236820465B68C6
:105FDC00BDE81040184710BD13B5044608460191A2
:105FEC0002F025FA01990246204602B0BDE81040A5
:105FFC0001F0ACBF13B504460846019102F017FA44
:10600C0023680199DB680246204602B0BDE81040C7
:10601C00184707B503688DF80710DB6801220DF1EE
:10602C000701984703B05DF804FB0EB403B503AB4E
:10603C00002153F8042B006A0193FFF748FF02B0CC
:10604C005DF804EB03B070472DE9F74FD0E90095EC
:10605C004FF0140808FB05F50093AB10184D1746CC
:10606C005D434C46002D23DD6E1008FB06F004EB5F
:10607C00000A3A46BAF804B0205801915F4528BF8F
:10608C005A4602F0DCF90199012378B95F4503D136
:10609C00009A13703546E5E78CBF012000200028DC
:1060AC00F8D0AE1B0AF11404013EF3E7C00FF6E77B
:1060BC00A4EB09040248A410604303B0BDE8F08FC0
:1060CC00CDCCCCCC7FB50369067E01910BB301B36B
:1060DC00002500F10C04039503A901A8FFF736FF76
:1060EC000146B0B10DF10B03039A8DF80B5020460D
:1060FC00FFF7AAFF9DF80B305BB12468142303FB58
:10610C00004000F10804B0F90630002BA8BFDEB245
:10611C00E2E7304604B070BD10B50A4C2378BFF3EB
:10612C005B8FDB070BD42046FDF7C0FF38B1204650
:10613C00FDF7C1FF044A0549054801F0BFFF0448BB
:10614C0010BD00BF08E7032024E40320555F0D00B9
:10615C00B4E3032010B50A4C2378BFF35B8FDB0745
:10616C000BD42046FDF7A2FF38B12046FDF7A3FF64
:10617C00044A0549054801F0A1FF044810BD00BFC1
:10618C000CE7032024E40320535F0D00B8E3032045
:10619C0038B500250446C0E90055C0E904558560B2
:1061AC00856140F8245FFEF75FFFFFF7B5FFE06104
:1061BC00FFF7D0FF25732062204638BD10B50B4C7D
:1061CC002378BFF35B8FDB070ED42046FDF76EFF01
:1061DC0050B10748FFF7DCFF2046FDF76CFF054A7E
:1061EC000549034801F06AFF014810BD04E703208C
:1061FC0014E7032024E4032039660D00024A034906
:10620C0003480023FFF790B815650D00A1640D003D
:10621C0021640D0000231A4619461846FFF784B86E
:10622C0037B50D6951F8043B0093044601A8FFF7FC
:10623C00DFFB6A462946204601F032FD01A8FFF734
:10624C00E8FB204603B030BD37B58D6851F8043BF0
:10625C000093044601A8FFF7CBFB6A46294620466B
:10626C0001F09AFD01A8FFF7D4FB204603B030BD26
:10627C0037B5CD6851F8043B0093044601A8FFF7ED
:10628C00B7FB6A462946204601F062FD01A8FFF7DC
:10629C00C0FB204603B030BD70B58AB00D46014638
:1062AC0004A8FFF7D1FF144E04A801F08DFDE8B14E
:1062BC0004A96846FFF7DCFF02983146FFF76DFE34
:1062CC00044610B12C1E18BF012401A8FFF7A1FB36
:1062DC00002CE9D004A96846FFF7A2FF684601F03C
:1062EC0015FD286001A8FFF794FBDDE705A8FFF773
:1062FC0090FB0AB070BD00BFF0870D0037B50C469F
:10630C0020461249154602F080F848B900F05AFFB1
:10631C004FF4165100F046FF00F054FF03B030BDAF
:10632C000B49204602F071F870B94FF4165301A9CD
:10633C0028460193FFF7B0FF01F018F8019901F01E
:10634C000FF801F013F8E9E70020E7E7F5870D00F7
:10635C00FC870D0070B5D0E900531426044606FBEB
:10636C000356AE4205D005F10800FFF7F3FF1435D4
:10637C00F7E72068FFF774F8204670BD10B50446A7
:10638C000C30FFF7E7FF2046FFF720FB204610BD3F
:10639C0010B5044B044640F8043BFFF7EFFF2046D2
:1063AC0010BD00BFB8860D0010B50446FFF7F0FF16
:1063BC002046242101F087FE204610BD10B5034B6A
:1063CC0003600446FFF7E4FF204610BD98880D00DB
:1063DC0010B50446FFF7F2FF2046242101F073FEAE
:1063EC00204610BD0022C0E9002210B582600C6866
:1063FC0004604C6844608C680A604A6084608A60FF
:10640C0010BD10B5036804461868FEF745FE20461B
:10641C0010BD00002DE9F04F87B0804603931C4B54
:10642C005B68C3F30803894616466BB9FFF7C6FED3
:10643C00044600F12403406A0593FEF725FE237BF6
:10644C002BB105A8FFF7DDFF07B0BDE8F08F0123E6
:10645C002373D4E900535FFA89F905EB830AAA4543
:10646C0012D055F8047B3146381DFFF72BFE8145C1
:10647C00F5D33B68039A0092D3F808B04A463346EA
:10648C0041463846D847EAE700232373D9E700BFD3
:10649C0000ED00E02DE9F74F9B461A4B5B68C3F308
:1064AC0008038046894616466BB9FFF787FE0446FB
:1064BC0000F12403406A0193FEF7E6FD237B2BB128
:1064CC0001A8FFF79EFF03B0BDE8F08F01232373F3
:1064DC00D4E90053F6B205EB830A55450ED055F8B6
:1064EC00047B5946381DFFF7EDFD8642F5D33B681A
:1064FC004A46DB68414638469847EEE7002323734B
:10650C00DEE700BF00ED00E02DE9F341164B5B68C0
:10651C00C3F3080305460F461BBBFFF74FFE00F104
:10652C0024030446406A0193FEF7AEFDD4E90063F0
:10653C00462406EB8308B04509D101A8FFF761FF9B
:10654C00A542B4BF0020012002B0BDE8F08156F88E
:10655C00040B39460430FFF7B5FD8442A8BF04464E
:10656C00E9E70020F0E700BF00ED00E070B504465D
:10657C00D0E900020B4600EB8202824207D00146B2
:10658C001D6851F8046BAE4203D00846F5E70020B5
:10659C0070BD521A01F0DCFE6368013B63600120A0
:1065AC00F6E71FB500F124030446406A01910393FA
:1065BC00FEF76AFD01A92046FFF7D8FF18B1636802
:1065CC000BB9FFF727FE03A8FFF71BFF04B010BDA4
:1065DC0070B5D0E904561823044603FB0656AE42A8
:1065EC0015D005F110012046FFF7C0FF63680BB909
:1065FC00FFF710FEE06929690368DB689847696951
:10660C0019B1206A0368DB6898471835E7E7D4E9C5
:10661C000453182606FB0356AE4204D02846FEF758
:10662C00DCFF1835F8E70023636170BD73B50446D1
:10663C00FFF7F0FD04F12403606A0193FEF724FDDB
:10664C002046FFF7C5FF01A8FFF7DBFE606A08B123
:10665C00FEF712FDD4E90453182606FB0356AE428E
:10666C0004D02846FEF7B9FF1835F8E72069FEF785
:10667C00F7FE2068FEF7F4FE204602B070BD88429B
:10668C00F8B506460C46154627D9904226D2A2F1FB
:10669C0014056C1AA1F1140704440026AF423DD036
:1066AC00A4B12B682360AB88A380B5F90630E380D6
:1066BC00C4E902662661AB68A360AE60E368EA6871
:1066CC00E260EB6023692A6922612B6105F1080005
:1066DC00FFF740FE143D143CE0E71FD00027AC420E
:1066EC001CD0A6B123683360A388B380B4F90630FC
:1066FC00F380C6E902773761A368B360A760F368DB
:10670C00E268F260E360336922693261236104F16B
:10671C000800FFF71FFE14341436E0E7F8BDF8B597
:10672C00D0E901539D4204460E4617460DDB013558
:10673C00002D006804DDA900FEF79AFE18B9F8BD1B
:10674C00FEF78EFE00202060A5602568626805EBD0
:10675C0086019200A2EB8602081D01F0F9FD45F8B6
:10676C0026706368013363600120E8E737B500F1F8
:10677C0024030446406A01930D46FEF785FCD4E9D8
:10678C00003103EB810083421A460BD01268AA42F7
:10679C0003F10403F7D101A8FFF733FE00252846C7
:1067AC0003B030BD2A462046FFF7B9FF0546002846
:1067BC00F1D06368012B01D1FFF720FD01A8FFF791
:1067CC0020FEECE78842F8B504460D46164614D96F
:1067DC00904213D2A2F11006751AA1F110072C44A5
:1067EC00B74218D01CB131462046FEF772FF304636
:1067FC00FEF7F3FE103E103CF2E70CD0B5420AD087
:10680C001CB129462046FEF764FF2846FEF7E5FE3C
:10681C0010351034F2E7F8BD70B50E1E054611DDCB
:10682C003001FEF715FE044658B1D5E9001201EB14
:10683C000212FFF7C7FF2868FEF712FE2C60AE604D
:10684C00012070BD0024F6E72DE9F04F914697B07A
:10685C0000230391D9F804100C9346229942C0E905
:10686C000033C0E90233C0E90433CDE90A330446EE
:10687C00027623DCD9E90057142303FB0757AF42F8
:10688C003BD029460DA8FEF724FF0DA911A80B9E9D
:10689C00FEF71FFFDDE90B1399421BDA0A9B0B9ADB
:1068AC0003EB061603EB0212314606F11000FFF75C
:1068BC0089FFEEB90B9B01330B9311E00AA8FFF78C
:1068CC00ABFF0028D6D10AA8FFF780F8204617B0F6
:1068DC00BDE8F08F01310AA8FFF79EFF0028DDD13B
:1068EC0011A8FEF77AFE0DA8FEF777FE1435C6E761
:1068FC0011A93046FEF7EDFEDCE70026CDE90D666A
:10690C000F9637464FF0140ADDE90A239E4280F2B7
:10691C0097803301D35808930BB90136F4E70AFB7F
:10692C0006F3099702930DAD09A908A8FFF70EFB12
:10693C0083460028F1D00146099A8DF81F700DF19D
:10694C001F032846FFF780FB9DF81F800190B8F1CC
:10695C00000F66D1BDF82430ADF84830CDE913886E
:10696C004FF6FF73CDF844B0ADF84A30CDF85480F3
:10697C00D5E9013293421ADB03F1010BBBF1000F95
:10698C004ADD0AFB0BF0FEF763FD0490002845D0AE
:10699C00D5E900120AFB0212FFF771FE049B28686E
:1069AC000493FEF75DFD049B2B60C5F808B0019BBA
:1069BC00D5F800B06A680AFB03F30BEB030101F195
:1069CC0014000AFB02B204910593FFF758FE0499D8
:1069DC00A9B1059B119A4BF80320BDF848308B8068
:1069EC00BDF94A30CB80C1E902770F61139B8B60F4
:1069FC00149B1397CB60159B14970B6115976B68C1
:106A0C0001336B6013A8FFF7A5FCB8F1000F08D099
:106A1C000DA8FFF79FFC56E74346C0E74FF001086F
:106A2C00F0E7019B2D680AFB0355089B1B782BB9DB
:106A3C00D9F80030029A13441B7CEB80083573E7BD
:106A4C002168226062686360A3680B920C9A0C93B5
:106A5C00E368A2600D9A0D932369E2600E9A0E937F
:106A6C00636922610F9A0F93039B0A9162612376EB
:106A7C00CEE700007FB50546094B45F8043B0446BC
:106A8C000E4601A81146FDF752FD01AA31462846D3
:106A9C00FFF7DAFE01A8FDF709FD204604B070BD32
:106AAC00B8860D00F0B50F4687B026490C9C3846C9
:106ABC0016461D4601F0A9FC00BBE4B12946684608
:106ACC00FFF790FC2049242001F0FFFA054670B135
:106ADC00694603A8FDF72BFD03AA31462846FFF7AC
:106AEC00C9FF03A8FDF7E2FC184B2C622B6068462B
:106AFC00FDF7DCFC2C46204607B0F0BD14493846A7
:106B0C0001F083FCE0B9002CF5D029466846FFF76C
:106B1C0069FC0D49242001F0D8FA05460028E6D07E
:106B2C00694603A8FDF703FD03AA31462846FFF783
:106B3C00A1FF03A8FDF7BAFC064B2B602C62D6E72D
:106B4C000024D8E704880D00918A0D0098880D0068
:106B5C0008880D0080880D00014B024A1A607047AE
:106B6C0010E7032019880D002DE9F047089DD0F897
:106B7C00209004460E461746984600F023FB8145AC
:106B8C004CD02B79190704D56A6954492046FFF774
:106B9C004CFAB8F1000F0DD05B212046FFF739FA03
:106BAC0041462046FFF726FA23684D49DB6802224E
:106BBC00204698472B79DA0723D5D5F808802F2162
:106BCC00404601F04EFC08B100F101084146204658
:106BDC00FFF710FA2B799B0708D53A212046FFF7CF
:106BEC0018FAEA683F492046FFF71FFA2A7923680A
:106BFC0012F0040FDB6814BF3B493C4902222046CB
:106C0C0098472B7958071DD529690B461A4613F856
:106C1C00010B60B1202808D11946F7E7344800F081
:106C2C003EFF0028ADD0BDE8F0872828EED12368C0
:106C3C00521ADB682046984723682E49DB680422E9
:106C4C002046984700213846FEF766FB0146204651
:106C5C00FFF7D0F923682549DB68022220469847C4
:106C6C001EB131462046FFF7C5F92B7913F0300FD2
:106C7C002CD023682049DB680222204698472B79C8
:106C8C00D9060AD523681D49DB6807222046984798
:106C9C00AA691B492046FFF7C8F92B799A0611D52A
:106CAC00DB0605D523681049DB680222204698478D
:106CBC0023681449DB6820460A229847E969204674
:106CCC00FFF798F95D212046FFF7A3F923680E49D9
:106CDC00DB6820460222BDE8F04718471D880D00EE
:106CEC0024880D00E0890D0027880D002C880D00EC
:106CFC00C0E703202A880D002F880D0032880D0074
:106D0C003A880D003D880D0048880D002DE9F043B0
:106D1C0085B0D0F820900C9C05460F4690461E4638
:106D2C0000F050FA814505D1494800F0B8FE002822
:106D3C0040F08A802B6A474A01924FF0000901A863
:106D4C0003938DF8089001F068F849464046FEF729
:106D5C00E3FA41498046012201A801F0E7F84146D7
:106D6C00FFF73AF93FB13D49012201A801F0DEF8E5
:106D7C003946FFF731F93EB13949012201A801F03A
:106D8C00D5F83146FFF728F92379DF070ED5A66829
:106D9C002F21304601F065FB00B1461C3149012220
:106DAC0001A801F0C3F83146FFF716F923799E07C5
:106DBC0007D52D49022201A801F0B8F8E16801F0CD
:106DCC0039F82379580714D5266933461F4613F82A
:106DDC00012B2AB1202A01D11E46F7E7282AF5D12A
:106DEC002249022201A801F0A1F8BA1B314601F098
:106DFC00ADF82379190707D51D49012201A801F027
:106E0C0095F8616901F028F82379DA0608D504228F
:106E1C0018490DEB020001F089F8A16901F00AF89C
:106E2C0023799B0607D51449062201A801F07EF8A8
:106E3C00E169FFF7D1F801A800F0D9FF286A0F49E2
:106E4C0003680222DB68984705B0BDE8F08300BFF9
:106E5C00C0E7032068880D00FA870D00F1860D004D
:106E6C00AE860D004B880D004D880D0050880D002E
:106E7C00FC850D0053880D0058880D0048880D00C6
:106E8C00024B1A68024B1A60704700BFBCE3032028
:106E9C003CE703200021FEF757BA10B50446FEF775
:106EAC009BFC204610BD00000348044A0449002303
:106EBC00836001F003B900BF40E7032024E4032002
:106ECC00A76E0D00014B1860704700BFC0E3032094
:106EDC0008B50B4B43B100F075F903681B69984773
:106EEC00002801DDAFF30080064B43B100F03EFA01
:106EFC0003681B699847002801DDAFF3008008BDCB
:106F0C00000000000000000008B5FFF7E1FFFEF7ED
:106F1C0067F8014B186008BDD4E703200248034A08
:106F2C000349121A01F006BA00F4032004F40320FA
:106F3C00B08C0D0007B5002300931A466FF0770153
:106F4C00FEF714FA03B05DF804FB000007B54388A4
:106F5C000A2B08D0502B0BD1094B1B684BB103B03B
:106F6C005DF804EB1847FFF7E5FF03B05DF804FB91
:106F7C00002300931A466FF07701FEF7F7F9F4E758
:106F8C0054E7032038B5124C1248134D0021FEF77C
:106F9C0097FA2368AB42114B0CBF012200221A70E6
:106FAC0002D0FFF7BBFF2560FEF70AF8044601F09C
:106FBC00F1F90B4B13B12046AFF3008000210848C8
:106FCC00FEF73EFABDE8384006480021FEF7C4B98A
:106FDC0000F40320D16E0D001E1C279A50E70320ED
:106FEC0000000000596F0D00704710B518210446C1
:106FFC0001F069F8204610BDF0B5037D062B8DB06D
:10700C000E4600F104074FF0000412D000F1080501
:10701C0015F8011D0A223046FEF73BFFAF4204442F
:10702C0019D0002CF4D02E213046FEF723FF044457
:10703C00EEE72F236A4639460A208DF80040FEF70A
:10704C0033F8684601F0F3F933680246DB686946A9
:10705C0030469847044620460DB0F0BD10B5054BA0
:10706C000446112240F8043B002101F08BF9204624
:10707C0010BD00BFFC880D000346074A10B543F84D
:10708C00042B01F1100251F8044B43F8044B9142CC
:10709C00F9D10A781A7010BDFC880D00037D042B01
:1070AC0004D14068003818BF01207047062B07D167
:1070BC0043683BB983682BB9C3681BB90069F1E716
:1070CC00002070470120704710B59DF8084044EA35
:1070DC00032343EA024242EA01610423416003753F
:1070EC0010BD000013B5054B0360CB7800938B7873
:1070FC004A780978FFF7E8FF02B010BDFC880D0054
:10710C0041747047704708B50021007CFEF7D4F835
:10711C0040EAE07008BD08B50121007CFEF7CCF810
:10712C0040EAE07008BD08B5007CFEF7BDF820EA27
:10713C00E07008BD08B5007CFEF7AEF820EAE07000
:10714C0008BD13B50446007C0191FEF7ADF800288C
:10715C00019901DC607C20B1207CFEF7B5F820EAB7
:10716C00E07002B010BD007CFEF7B6B810B514216B
:10717C00044600F0A8FF204610BD000010B54FF4E7
:10718C007A73044608460021C4E90113044B2360BA
:10719C000123207463741146FEF766F8204610BD77
:1071AC0010890D00007C0022FEF766B8007CFEF70B
:1071BC006BB810B514220446002101F0E3F8204608
:1071CC0010BD000010B5104C88B003A8FFF7F1FFFC
:1071DC002178BFF35B8F11F0010111D12046019191
:1071EC00FCF764FF019958B103AA0848FFF7C6FFE2
:1071FC002046FCF760FF064A0649044800F05EFF93
:10720C00024808B010BD00BF58E703205CE703201C
:10721C0024E4032011710D00002240681146FEF792
:10722C00C7B8002240681146FEF7E2B80022406859
:10723C001146FEF7EDB840680022FEF7E1B8406851
:10724C00002281F00101FEF7CBB8002340681A46FA
:10725C001946FEF7BDB8002340681A461946FEF7DA
:10726C00AFB8002240681146FEF792B84068002281
:10727C000221FEF795B8002340681A46FEF780B845
:10728C00084B10B5282422461846002101F07AF844
:10729C00054B04804FF0FF32426004225A60034ACF
:1072AC001A6010BD78E7032070E7032040890D00B9
:1072BC0070474174704708B5007CFDF74DFF20EA1C
:1072CC00E07008BD08B5007CFDF71EFF20EAE070F9
:1072DC0008BD08B5007CFDF727FF40EAE07008BD4B
:1072EC0008B5007CFDF718FF40EAE07008BD007C93
:1072FC00FDF722BF37B5457C04462DB1207C03B089
:10730C00BDE83040FDF7F8BE007C0191FDF724FF8D
:10731C0000280199F2DC284603B030BD10B51421C9
:10732C00044600F0D0FE204610BD000010B54FF012
:10733C00000C0446084611464FF47A72C4E901C2A7
:10734C00044A22600122207462741A46FDF7C4FEBE
:10735C00204610BD7C890D00007C0023FDF704BF86
:10736C000022FFF7F9BF007CFDF7BEBEF7B51B4C42
:10737C0026684EB98420FCF786FE054618B1842297
:10738C00314600F0FFFF2560154D2F684FB9842062
:10739C00FCF779FE064618B18422394600F0F2FF5C
:1073AC002E60104E3178BFF35B8F11F0010112D1BA
:1073BC0030460191FCF77AFE019960B122682B6886
:1073CC000948FFF7B3FF3046FCF775FE074A08493A
:1073DC00054800F073FE044803B0F0BDA4E7032099
:1073EC00A8E70320A0E70320ACE7032024E4032054
:1073FC00BD720D007047F8B5064615460C468F1841
:10740C00BC4206D0336814F8011B9B683046984781
:10741C00F6E72846F8BD007C0022FDF7ADBE007CE7
:10742C000021FDF7B1BE007C0021FDF7B5BE007C4C
:10743C000021FDF7B9BE007C0021FDF7BDBE10B5E3
:10744C001421044600F03FFE204610BD10B54FF449
:10745C007A73044608460021C4E90113034B2360E8
:10746C0020741146FDF7B8FE204610BDAC890D0006
:10747C0013B503688DF80710DC6B01224FF0FF3356
:10748C000DF10701A04702B010BD10B40368DC6B0E
:10749C004FF0FF33A4465DF8044B604713B5134619
:1074AC0002688DF80710D46B0DF107010122A0477B
:1074BC0002B010BD704738B543691A68002A0546FA
:1074CC0010DAB3F88620B3F884309A420AD10368F4
:1074DC001B699847044628B92B682846DB6A9847ED
:1074EC00204638BD0120FCE743691868C043C00F33
:1074FC0070477047064B994210B500F10C0405D04B
:10750C00084600F0E9FD002808BF0024204610BD05
:10751C00E8870D0010B5AC21044600F0D4FD2046E0
:10752C0010BDFCF7B4BD2DE9F0414FF0000886B05A
:10753C001D46C0F8048004460E46174641461022EC
:10754C0002A800F01FFF6B1C09D04FF47A70B5FB3A
:10755C00F0F3CDE9023800FB1353584304906069F3
:10756C0010230093006802AB41F2050240F6FF7154
:10757C00FDF73AFE002807DAFDF79AFF036863600F
:10758C00002006B0BDE8F0816069002300683A462F
:10759C003146FDF749FE031EEEDB1846F1E700000D
:1075AC0038B584690A4B036005467CB16368013BBE
:1075BC0063605BB9236820469B689847A368013BCE
:1075CC00A3601BB923682046DB689847284638BD62
:1075DC00088A0D0010B50446FFF7E2FF20461C2177
:1075EC0000F071FD204610BD70B54D69054B044689
:1075FC008C3544F8043B06460FCD0FC42B68237022
:10760C00304670BDFC880D0010B54369B3F8862078
:10761C00B3F884309A42044605D06369B3F88420E9
:10762C001344187910BD03681B6998470028F4D1DE
:10763C004FF0FF30F6E710B54369B3F88620B3F886
:10764C0084309A42044608D06369B3F88420511CF4
:10765C00A3F884101344187910BD03681B6998476C
:10766C000028F1D14FF0FF30F6E7F8B54369174623
:10767C00B3F88620B3F884309A4205460E4616D0ED
:10768C006969B1F88430B1F88640E41ABC4228BF6D
:10769C003C46043322461944304600F04BFE6A69DE
:1076AC00B2F884302344A2F884302046F8BD036835
:1076BC001B6998470028E3D14FF0FF34F5E7426986
:1076CC000023A2F884304269A2F8863070472DE975
:1076DC00F0411F4603680C46DB6A8AB00546164625
:1076EC009847237DD5F81480042B0CBF02200A2068
:1076FC0006220121FDF7A0FDC8F800006B691B688C
:10770C00002B08DA2B682846DB6A002498472046B1
:10771C000AB0BDE8F0812846FFF7D1FFB7B10023CE
:10772C0003A9F8B20393ADF81030FDF741FC002823
:10773C00E8D1686906230093006803AB41F20B02A1
:10774C0040F6FF71FDF750FD0028DBD11C22002113
:10775C0003A800F017FE237D042B1DD14FF40773F3
:10776C003046ADF80C30FDF7AFFCADF80E0060689C
:10777C00FDF7A2FC04906B691C22186803A9FDF7A5
:10778C0043FD0028BED104340FCC6D698C350FC578
:10779C0023682B700124BAE740F61C233046ADF861
:1077AC000C30FDF791FC05AEADF80E00231D04F175
:1077BC00140718685968324603C20833BB42164690
:1077CC00F7D1D8E730B54269B2F886308BB00446B1
:1077DC002BB1B2F884209A4201D1FFF770FF616996
:1077EC000868002818DBB1F886507F2D14D80431B6
:1077FC000823C5F180022944FDF70EFD002813DD96
:10780C006369B3F886200AB9A3F884206369B3F8D6
:10781C0086201044A3F886006369B3F88600B3F899
:10782C008430C01A0BB030BDFDF742FE03680B2B41
:10783C00F2D0FDF73DFE03680B2BEDD02023002585
:10784C00CDE90235FDF734FE03680193084B094975
:10785C00009302AA2B463220FDF74EFD636918688F
:10786C00FDF7CAFC63694FF0FF321A60D4E700BF22
:10787C00D3890D00CC890D0010B5436904461868F6
:10788C00002801DBFDF7B8FC63694FF0FF321A608A
:10789C006069112200218C3000F074FD2046BDE897
:1078AC001040FFF70CBF10B5002304460160C0F870
:1078BC0084308830FFF7D2FB204610BD73B500230F
:1078CC004FF47A72C0E901320E4A036102604361DF
:1078DC000446AC200191FCF7D6FB051E05F10C0605
:1078EC0008D00123C5E90133074B01992B603046C1
:1078FC00FFF7D9FF2046C4E90565FFF7E0FE02B0AB
:10790C0070BD00BF088A0D00EC890D0010B54FF05A
:10791C00FF310446FFF7D2FF204610BD10B50446D8
:10792C000068002801DBFDF767FC204610BD0C3019
:10793C00FFF7F4BF2DE9F0439846036893B00D466A
:10794C000024DB6A06461746984728466B462246B3
:10795C0021460094FDF70CFB0546002863D1009BE3
:10796C00002B4BD05B69002B48D006A8FFF776FBA9
:10797C00009B5C696378022B04D1211D06A8FDF7DE
:10798C001DFE26E00A2B24D11122294601A800F065
:10799C00F9FCA368002B38D004F108030DF1040C9A
:1079AC00183418685968624603C20833A3429446D7
:1079BC00F7D1062301A90CA88DF81430FFF75CFB56
:1079CC000DF1340CBCE80F0007AC0FC4DCF8003030
:1079DC00237006A8FFF762FB80B1336807ADD3F8BC
:1079EC002090124B0C930FCD0DAC0FC42B68237051
:1079FC003A4643460CA93046C84705460098FDF761
:107A0C00AFFA284613B0BDE8F083E368002BC3D16E
:107A1C004FF6FF70D4F81090FDF74EFB8145BBD1AB
:107A2C0004F11401AAE72546E8E700BFFC880D0025
:107A3C00002340681A46FDF7A3BC406800220221CF
:107A4C00FDF7AEBC002240681146FDF7A1BC002238
:107A5C0040681146FDF7ACBC002340681A46194635
:107A6C00FDF7AEBC002340681A461946FDF7B0BCC2
:107A7C0040680021FDF7D4BC40680021FDF7D8BC5C
:107A8C004068002281F00101FDF7AABC4068002289
:107A9C00FDF7B6BC002240681146FDF7B9BC0022C8
:107AAC0040681146FDF7A4BC2DE9F043002495B0C5
:107ABC0016460D460746FFF7D1FA214618220EA8A6
:107ACC00009400F05FFC4023CDE90C3421466B465A
:107ADC000CAA3046FDF74CFA044600284CD102465D
:107AEC0001216868FDF764FC022180462246686823
:107AFC00FDF75EFC009E81462146002E3CD00029FD
:107B0C003AD17368022B03D00A2B11D0F669F4E733
:107B1C00B8F1000F0AD0716906A8043107ADFFF760
:107B2C00E1FA0FCD3C1D0FC42B6823704146EDE7E5
:107B3C00B9F1000F01D14946E8E77469102201A898
:107B4C0000F020FC06238DF8143001AD04F108037D
:107B5C001834186859682A4603C20833A3421546DC
:107B6C00F7D101A906A807ADFFF786FA0FCD3C1D8A
:107B7C000FC42B682370DEE70098FDF7F1F9384647
:107B8C0015B0BDE8F0830000024B034A1A600022D6
:107B9C005A607047C0E70320548A0D0000F11003AF
:107BAC00012213F8101C0129184608D153F8041CA3
:107BBC0002EB4102013A03F11003F2D170470229A2
:107BCC0004BF53F8041C5218F4E70EB4F0B588B097
:107BDC0000AF07F13405102155F8042B7A600446E8
:107BEC002B467818FD60FDF753FC0F287A681AD9DC
:107BFC0000F1080323F007036E46ADEB030D411CA7
:107C0C002B466846FD60FDF743FC021E04DD23682D
:107C1C0069469B6820469847B5462037BD46BDE867
:107C2C00F04003B070470028F7D0236802469B68E9
:107C3C0007F1100120469847EFE710B5036804469A
:107C4C009B689847A368013BA3602BB92368204627
:107C5C00DB68BDE81040184710BD07B503688DF808
:107C6C0007109B6801220DF10701984703B05DF8DE
:107C7C0004FB38B50B6803604D6843689D420446AD
:107C8C000CD015B16B6801336B60606828B1436828
:107C9C00013B43600BB9FFF7D0FF6560204638BD50
:107CAC000B461146002210B5C0E900220446836041
:107CBC000BB9204610BDFFF7DCFFFAE78368EBB188
:107CCC001A78032A1AD8DFE802F00417021B0520E1
:107CDC00704702685B685268D05C2D2812D0A0F106
:107CEC003003092B0ED974280ED066280CD0A0F1C5
:107CFC006E03584258417047062070470020704769
:107D0C0004207047032070470220704710B50446CA
:107D1C00FFF7D4FF02280ED0C31EDBB2012B14D800
:107D2C002268A36850685B68BDE810400A220021F5
:107D3C00184400F025BC2268A36852685B68D05CCC
:107D4C00A0F174035842584110BD0020FCE700001C
:107D5C0038B50023C0E9003304460E48C4E90203D9
:107D6C00A9B10B78032B06D08BB9136858684B68F4
:107D7C00C35C6E2B07D013684D6858688B68284419
:107D8C005B1BA060E36011462046FFF772FF2046A4
:107D9C0038BD00BF4A880D0038B500250B46C0E938
:107DAC000055C0E90255C0E90455044611464BB1D3
:107DBC001A78012A06D103F11002DB688260436154
:107DCC00FFF757FF204638BD10B54369044663B131
:107DDC008068E060013B1030A0602061636113B1EA
:107DEC00FFF7DCFEA060012000E0184610BD10B5C6
:107DFC007D210446FFF731FF01232371204610BD7E
:107E0C0008B50379012B02D0022B04D008BD2C211C
:107E1C00FFF723FFFAE73A21FAE710B50446FFF71C
:107E2C00EFFF20467B21FFF718FF0023237120462C
:107E3C0010BD000013B504460191FFF7E1FF236864
:107E4C00019ADB6803492046984701232046237199
:107E5C0002B010BDE0890D0013B504460191FFF787
:107E6C00CFFF2368019ADB6803492046984701231A
:107E7C002046237102B010BD888A0D002DE9F04117
:107E8C000D4617462221DFF8A08004462F44FFF749
:107E9C00E4FE2946BD422A4638D015F8016B222E45
:107EAC0003D05C2E01D01F2EF4D82368521A9B6885
:107EBC00204698475C212046FFF7CFFE0D2E0AD8AE
:107ECC00072E1CD9A6F10803052B18D8DFE803F000
:107EDC000D0F11171315222E01D05C2E0FD1314628
:107EEC002046FFF7BAFE2946D4E76221F8E7742151
:107EFC00F6E76E21F4E76621F2E77221F0E72368DA
:107F0C003246DB68414620469847ECE78D4204D068
:107F1C0023686A1A9B682046984722212046FFF75F
:107F2C009CFEBDE8F08100BF8B8A0D0013B50446A2
:107F3C00CDE90021FFF764FF2046DDE90021FFF7C2
:107F4C009DFF02232046237102B010BD13B50446D9
:107F5C00CDE90021FFF754FF2046DDE90021FFF7B2
:107F6C008DFF01232046237102B010BD232813B5C9
:107F7C0002D9002002B010BDA0F10B03022B1AD8BD
:107F8C00174C2178BFF35B8F11F001010BD1204608
:107F9C000191FCF78BF8019928B11248FDF7D6FA3C
:107FAC002046FCF788F80F4B1878FDF755F9002898
:107FBC00DFD10120DEE7012809D800F057F80021B5
:107FCC00007CFDF701F980F00100C0B2D2E709385E
:107FDC000128EED8FFF7CAF9007CFDF7B5F8F2E7F7
:107FEC00C8E70320CCE70320232838B504460D4608
:107FFC000AD8FF2908D0FFF7B9FF28B12946204637
:10800C00BDE83840FCF7BCBF38BD38B504460D465A
:10801C00FCF7BEFFFF2810D0062804D84D2323FA06
:10802C0000F0C30709D42046FFF7A0FF28B129466A
:10803C002046BDE83840FCF7B3BF38BD38B5002347
:10804C00202543801423044603808560056106497E
:10805C00284600F03CF804496060284600F037F8E8
:10806C00E060204638BD00BF918A0D0030B50F4D41
:10807C002978BFF35B8F11F0010487B013D1284628
:10808C00FCF714F878B101A8FFF7D8FF01AA214634
:10809C000748FFF7DBF92846FCF70DF8054A0649B7
:1080AC00034800F00BF8024807B030BDD8E70320B6
:1080BC00DCE7032024E4032001740D000B46014689
:1080CC00184600F01BB9FBF7E2BFFBF7DCBFFBF770
:1080DC00DCBF08B5FDF7E4F9014900F0F9B800BFC1
:1080EC00AC8A0D007FB500241023CDE9023403685F
:1080FC0000949E698DF8044015466B461268B04793
:10810C009DF8043003F00603062B03BF009B2B6085
:10811C000120204604B070BD0098904214BF01208D
:10812C000620704710B5034B0360044600F0CDF8F1
:10813C00204610BDEC8A0D0010B50446FFF7F2FF87
:10814C0020460821FFF7BFFF204610BD2DE9F04166
:10815C001F46DDE90834DDF81880984506461546BB
:10816C0007D1079900F0B4F818B165710020BDE88B
:10817C00F0813946304600F0ABF80028F6D00123E8
:10818C00C4F800802571A371F0E738B515461C467C
:10819C0000F09EF820B10823E360062325602371CC
:1081AC0038BD73B505460C4601921E4600F090F89A
:1081BC0050B9032E08D82368019A5B6929462046DA
:1081CC0002B0BDE87040184702B070BD10B5034B4B
:1081DC0003600446FFF7A6FF204610BD4C8B0D0034
:1081EC0010B50446FFF7F2FF20460C21FFF76BFF9A
:1081FC00204610BDF7B5089F974205460E4614461B
:10820C000AD0A86802680897156A31462246AC461F
:10821C0003B0BDE8F04060471946019300F058F8F0
:10822C00019B0028EDD0062003B0F0BD2DE9F14FE5
:10823C000D461946DDE90A4BDDE90CA681461746C9
:10824C00984600F045F890B1002D3460377109DB89
:10825C0061198A450CBF06210121B171002001B0C2
:10826C00BDE8F08F0235F9D10123B371F6E754451F
:10827C0006D15946484600F02BF808B17771EDE766
:10828C00D9F808000368CDE90CA6CDE90A4BDC69E6
:10829C003A4643462946A44601B0BDE8F04F604734
:1082AC002DE9F04107460C4615461E46FFF76DFFBB
:1082BC0048B9B86803689F692A4633462146BC46CC
:1082CC00BDE8F0416047BDE8F08170470020704781
:1082DC00814208B50ED0406803782A2B0CD049682F
:1082EC000B782A2B08BF013100F08FF8B0FA80F020
:1082FC00400908BD0120FCE70020FAE710B5054C49
:10830C0013462CB10A4601460220AFF3008010BD83
:10831C002046FCE70000000030B501390024A242E1
:10832C0001D1002005E0035D01340D5DAB42F6D0B8
:10833C00581B30BD0A44914200F1FF3300D1704705
:10834C0010B511F8014B03F8014F9142F9D110BD52
:10835C00884210B501EB020402D98442234607D8A7
:10836C00431EA14208D011F8012B03F8012FF8E7A6
:10837C00024401468A4200D110BD13F8014D02F8A7
:10838C00014DF7E702440346934200D1704703F8CE
:10839C00011BF9E738B50D4B1D68AB6B04467BB977
:1083AC001820FDF755F80A4A0A4BA863C0E90023C8
:1083BC00094B83600B23838101220023C0E9042332
:1083CC00AB6B00221C615A6138BD00BFC0E30320B7
:1083DC000E33CDAB34126DE6ECDE0500C9B20346AC
:1083EC0010F8012B1AB18A42F9D1184670470029AE
:1083FC0018BF0023F9E710B50446FFF7EFFF18B9D3
:10840C00204600F014F8204410BD10F8012B11F890
:10841C00013B012A28BF9A42F7D0D01A7047034675
:10842C0011F8012B03F8012B002AF9D170470346F0
:10843C0013F8012B002AFBD1181A0138704710B51C
:10844C006AB10139841810F8013B11F8012F9342DD
:10845C0003D1A04201D0002BF5D1981A10BD1046C3
:10846C00FCE738B503460C4669B9BDE83840FFF760
:10847C00B5BF431C054621461846FFF7AFFF002841
:10848C00F7D1284638BD0025F5E700002DE9F04767
:10849C003A4E86468C4660461CF8014BA55D15F09D
:1084AC000805F8D12D2C33D19CF800404FF0010871
:1084BC0000F1020C002B5CD0102B0CD1302C0AD10B
:1084CC009CF8000000F0DF0058284DD19CF80140CA
:1084DC0010230CF1020C08F10047013F0026B7FBFA
:1084EC00F3F9304603FB197AA4F13005092D18D89D
:1084FC002C46A34224DD751C07D081451DD301D128
:10850C00A2451ADB00FB034001261CF8014BEBE7EC
:10851C002B2C08BF9CF80040A84608BF00F1020CA9
:10852C00C8E7A4F14105192D01D8373CE1E7A4F1C6
:10853C006105192D04D8573CDBE74FF0FF36E4E713
:10854C00731C06D12223CEF80030384642B9BDE860
:10855C00F087B8F1000F00D04042002AF7D00EB1DE
:10856C000CF1FF311160F2E73024002BB3D108235A
:10857C00B1E7302CA4D00A23ADE700BF868B0D00E9
:10858C0013460A46014602480068FFF77FBF00BF4A
:10859C00C0E303201D400D0059400D0081400D002B
:1085AC0085400D00000000007475726E6F6E74686B
:1085BC00656C696768747334320061646D696E0050
:1085CC00617072615F626F726F6E5F31004D5154FA
:1085DC005420436F6E6E6563746564004D51545442
:1085EC0020436F756C646E277420636F6E6E6563C9
:1085FC0074005374617274696E6700436F6E6E65BC
:10860C006374696E6720746F206D71747420736568
:10861C007276657200436F6E6E6563746564207468
:10862C006F206D71747420736572766572004D6184
:10863C006B696E6720737572652063656C6C756110
:10864C007220697320636F6E6E6563746564006D70
:10865C007174745F7075626C6973682063616C6CA3
:10866C0065642E005075626C697368696E6720745E
:10867C006F7069633A202573096D73673A2573002F
:10868C00466F756E642073657269616C20746572D7
:10869C006D696E61746F7200617270612F676173C6
:1086AC002F25630000000000000000000000000007
:1086BC0000000000A5400D00C9400D0000000000A6
:1086CC000000000031410D0065410D00756B0D007F
:1086DC00CB400D00636F6E646F2E686174617361C3
:1086EC006B612E636F6D0000044D515454040006F1
:1086FC004D5149736470030000000000000000003D
:10870C003B550D0031550D0027550D001D550D0025
:10871C0011550D0005550D007D7A0D00857A0D0063
:10872C00F9540D00F1540D00E7540D00DD540D000B
:10873C00B57A0D00776972696E672E626C650053AD
:10874C007461727420646973636F766572696E67A5
:10875C002073657276696365732E004661696C657A
:10876C006420746F20617070656E64207065657232
:10877C002043656E7472616C206465766963652E46
:10878C0000436F6E6E656374656420627920436587
:10879C006E7472616C206465766963652E00446941
:1087AC0073636F6E6E6563746564206279207265A5
:1087BC006D6F7465206465766963652E000000003A
:1087CC0000000000000000004D570D0071570D0017
:1087DC007F5A0D007F570D0051570D00000000000F
:1087EC0000000000626175640053657269616C0081
:1087FC0053657269616C31004A534F4E5374726504
:10880C00616D4C6F6748616E646C6572006170706D
:10881C0000253031307520005D20002C20002829E7
:10882C003A2000205B00636F6465203D20002569C1
:10883C000064657461696C73203D20000D0A00664C
:10884C00006C6E00666E00636F6465006465746135
:10885C00696C00000000000000000000575F0D0074
:10886C007D5F0D003D5F0D00D77B0D00000000000B
:10887C00000000009D630D00B5630D00756B0D00CD
:10888C00CB400D000000000000000000C9630D008B
:10889C00DD630D00196D0D00455F0D00000000003B
:1088AC0000000000555F0D008B5F0D00B16A0D00DC
:1088BC00475F0D000000000000000000535F0D003A
:1088CC00995F0D0009630D00B55F0D0025592D252D
:1088DC006D2D25645425483A254D3A2553257A00AB
:1088EC0061736374696D6500000000000000000096
:1088FC0005700D00F56F0D00F76F0D000000000006
:10890C000000000011710D0079710D004F710D0008
:10891C00315E0D0041710D0013710D0023710D00BE
:10892C0073710D0033710D000D710D00000000000E
:10893C000000000083720D0079720D006F720D0043
:10894C0025720D0063720D0057720D007D7A0D00BB
:10895C00857A0D004B720D0043720D0039720D00BB
:10896C002F720D00B57A0D00000000000000000011
:10897C00BD720D0029730D0001730D00315E0D00E9
:10898C00D1720D00ED720D00DF720D00FB720D0047
:10899C00BF720D00C3720D0000000000000000004B
:1089AC0001740D004B740D0023740D0003740D0045
:1089BC002B740D0033740D003B740D0043740D00CB
:1089CC00776972696E670072656376206572726F83
:1089DC0072203D2025640000000000000000000013
:1089EC00FF740D0021750D003B790D002F750D00E6
:1089FC0001750D000000000000000000AD750D00B9
:108A0C00E1750D007D740D0097740D00D1770D008C
:108A1C0043760D0015760D00C1740D00DB760D004C
:108A2C0041790D0077760D0085780D00C3740D002B
:108A3C00F5740D00A9740D0033750D00F5750D005E
:108A4C0000000000000000003D7A0D00477A0D0088
:108A5C00517A0D005B7A0D00657A0D00717A0D006C
:108A6C007D7A0D00857A0D008D7A0D00997A0D00B6
:108A7C00A17A0D00AB7A0D00B57A0D002575007545
:108A8C00253034780000537431395F53705F6D6159
:108A9C006B655F7368617265645F74616700000089
:108AAC00EC8A0D00928A0D004C8B0D00C08A0D00D3
:108ABC00708B0D004E31305F5F6378786162697640
:108ACC003131375F5F636C6173735F747970655FAD
:108ADC00696E666F4500000000000000B48A0D004E
:108AEC0031810D0045810D00D9820D00D9820D0018
:108AFC00AF810D00F1800D0097810D0059810D00A3
:108B0C0025810D004C8B0D001C8B0D00B48A0D00C3
:108B1C004E31305F5F637878616269763132305FF5
:108B2C005F73695F636C6173735F747970655F69A0
:108B3C006E666F450000000000000000108B0D00F9
:108B4C00D9810D00ED810D00D9820D00D9820D0067
:108B5C00AF810D00F1800D00AD820D0039820D004A
:108B6C0001820D00EC8A0D00788B0D005374397462
:108B7C007970655F696E666F0000202020202020D0
:108B8C0020202028282828282020202020202020B1
:108B9C0020202020202020202020881010101010B1
:108BAC001010101010101010101004040404040401
:108BBC0004040404101010101010104141414141E4
:108BCC004101010101010101010101010101010149
:108BDC0001010101011010101010104242424242DA
:108BEC004202020202020202020202020202020219
:108BFC0002020202021010101020000000000000FF
:108C0C000000000000000000000000000000000058
:108C1C000000000000000000000000000000000048
:108C2C000000000000000000000000000000000038
:108C3C000000000000000000000000000000000028
:108C4C000000000000000000000000000000000018
:108C5C000000000000000000000000000000000008
:108C6C0000000000000000000000000000000000F8
:108C7C00000000000000000000000000A1450D00F5
:108C8C0045550D008D550D00095E0D00656B0D00F1
:108C9C008D6E0D00B56E0D008D720D00957B0D0067
:048CAC0000000000C4
:048CB00000000000C0
:108CB400E0860D000700000001000000B0880D00F0
:108CC400C8880D00EC880D00C4E3032000000000F8
:108CD4000000000000000000000000000000000090
:108CE4000000000000000000000000000000000080
:108CF4000000000000000000000000000000000070
:108D0400000000000000000000000000000000005F
:108D1400000000000000000000000000000000004F
:0C8D240000000000000000000000000043
:108D3000FFFFFFFF00000102030405060708090A00
:108D40000B0C0D0E0F101112131415161718191AFB
:088D50001B1C1D1E1F20280042
:048D58007856341203
:040000052003E3B041
:00000001FF
